{
  "contractName": "bottoken",
  "abi": [
    {
      "constant": true,
      "inputs": [
        {
          "name": "",
          "type": "address"
        }
      ],
      "name": "owners",
      "outputs": [
        {
          "name": "",
          "type": "bool"
        }
      ],
      "payable": false,
      "stateMutability": "view",
      "type": "function"
    },
    {
      "constant": true,
      "inputs": [],
      "name": "name",
      "outputs": [
        {
          "name": "",
          "type": "string"
        }
      ],
      "payable": false,
      "stateMutability": "view",
      "type": "function"
    },
    {
      "constant": true,
      "inputs": [],
      "name": "decimals",
      "outputs": [
        {
          "name": "",
          "type": "uint8"
        }
      ],
      "payable": false,
      "stateMutability": "view",
      "type": "function"
    },
    {
      "constant": true,
      "inputs": [
        {
          "name": "",
          "type": "bytes32"
        }
      ],
      "name": "balances",
      "outputs": [
        {
          "name": "",
          "type": "uint256"
        }
      ],
      "payable": false,
      "stateMutability": "view",
      "type": "function"
    },
    {
      "constant": true,
      "inputs": [],
      "name": "icon",
      "outputs": [
        {
          "name": "",
          "type": "string"
        }
      ],
      "payable": false,
      "stateMutability": "view",
      "type": "function"
    },
    {
      "constant": true,
      "inputs": [],
      "name": "locked",
      "outputs": [
        {
          "name": "",
          "type": "bool"
        }
      ],
      "payable": false,
      "stateMutability": "view",
      "type": "function"
    },
    {
      "inputs": [
        {
          "name": "_name",
          "type": "string"
        },
        {
          "name": "_icon",
          "type": "string"
        },
        {
          "name": "_decimals",
          "type": "uint8"
        },
        {
          "name": "_owner",
          "type": "bytes32"
        },
        {
          "name": "_initialSupply",
          "type": "uint256"
        }
      ],
      "payable": false,
      "stateMutability": "nonpayable",
      "type": "constructor"
    },
    {
      "anonymous": false,
      "inputs": [
        {
          "indexed": false,
          "name": "from",
          "type": "bytes32"
        },
        {
          "indexed": false,
          "name": "to",
          "type": "bytes32"
        },
        {
          "indexed": false,
          "name": "value",
          "type": "uint256"
        }
      ],
      "name": "Transfers",
      "type": "event"
    },
    {
      "anonymous": false,
      "inputs": [
        {
          "indexed": false,
          "name": "value",
          "type": "uint256"
        },
        {
          "indexed": false,
          "name": "account",
          "type": "bytes32"
        }
      ],
      "name": "newMint",
      "type": "event"
    },
    {
      "anonymous": false,
      "inputs": [
        {
          "indexed": false,
          "name": "account",
          "type": "bytes32"
        },
        {
          "indexed": false,
          "name": "_value",
          "type": "uint256"
        },
        {
          "indexed": false,
          "name": "_addr",
          "type": "address"
        }
      ],
      "name": "burnNotice",
      "type": "event"
    },
    {
      "anonymous": false,
      "inputs": [
        {
          "indexed": false,
          "name": "account",
          "type": "bytes32"
        },
        {
          "indexed": false,
          "name": "newAddress",
          "type": "address"
        }
      ],
      "name": "newAddr",
      "type": "event"
    },
    {
      "constant": false,
      "inputs": [],
      "name": "unlock",
      "outputs": [
        {
          "name": "success",
          "type": "bool"
        }
      ],
      "payable": false,
      "stateMutability": "nonpayable",
      "type": "function"
    },
    {
      "constant": false,
      "inputs": [],
      "name": "lock",
      "outputs": [
        {
          "name": "success",
          "type": "bool"
        }
      ],
      "payable": false,
      "stateMutability": "nonpayable",
      "type": "function"
    },
    {
      "constant": false,
      "inputs": [
        {
          "name": "_newOwner",
          "type": "address"
        }
      ],
      "name": "addOwner",
      "outputs": [
        {
          "name": "success",
          "type": "bool"
        }
      ],
      "payable": false,
      "stateMutability": "nonpayable",
      "type": "function"
    },
    {
      "constant": false,
      "inputs": [
        {
          "name": "_newOwner",
          "type": "address"
        }
      ],
      "name": "rmOwner",
      "outputs": [
        {
          "name": "success",
          "type": "bool"
        }
      ],
      "payable": false,
      "stateMutability": "nonpayable",
      "type": "function"
    },
    {
      "constant": false,
      "inputs": [
        {
          "name": "account",
          "type": "bytes32"
        }
      ],
      "name": "deposit",
      "outputs": [
        {
          "name": "success",
          "type": "bool"
        }
      ],
      "payable": true,
      "stateMutability": "payable",
      "type": "function"
    },
    {
      "constant": false,
      "inputs": [
        {
          "name": "account",
          "type": "bytes32"
        },
        {
          "name": "_value",
          "type": "uint256"
        },
        {
          "name": "_addr",
          "type": "address"
        }
      ],
      "name": "withdraw",
      "outputs": [
        {
          "name": "success",
          "type": "bool"
        }
      ],
      "payable": false,
      "stateMutability": "nonpayable",
      "type": "function"
    },
    {
      "constant": false,
      "inputs": [
        {
          "name": "_from",
          "type": "bytes32"
        },
        {
          "name": "_to",
          "type": "bytes32"
        },
        {
          "name": "_value",
          "type": "uint256"
        }
      ],
      "name": "transfer",
      "outputs": [
        {
          "name": "success",
          "type": "bool"
        }
      ],
      "payable": false,
      "stateMutability": "nonpayable",
      "type": "function"
    },
    {
      "constant": true,
      "inputs": [
        {
          "name": "_owner",
          "type": "bytes32"
        }
      ],
      "name": "balanceOf",
      "outputs": [
        {
          "name": "balance",
          "type": "uint256"
        }
      ],
      "payable": false,
      "stateMutability": "view",
      "type": "function"
    },
    {
      "constant": false,
      "inputs": [
        {
          "name": "_account",
          "type": "bytes32"
        }
      ],
      "name": "newDeposit",
      "outputs": [
        {
          "name": "success",
          "type": "bool"
        }
      ],
      "payable": false,
      "stateMutability": "nonpayable",
      "type": "function"
    }
  ],
  "bytecode": "0x6060604052341561000f57600080fd5b6040516200124138038062001241833981016040528080518201919060200180518201919060200180519060200190919080519060200190919080519060200190919050508060056000846000191660001916815260200190815260200160002081905550806003819055508460009080519060200190610091929190610141565b5083600190805190602001906100a8929190610141565b5082600260006101000a81548160ff021916908360ff1602179055506001600660003373ffffffffffffffffffffffffffffffffffffffff1673ffffffffffffffffffffffffffffffffffffffff16815260200190815260200160002060006101000a81548160ff0219169083151502179055506001600460006101000a81548160ff02191690831515021790555050505050506101e6565b828054600181600116156101000203166002900490600052602060002090601f016020900481019282601f1061018257805160ff19168380011785556101b0565b828001600101855582156101b0579182015b828111156101af578251825591602001919060010190610194565b5b5090506101bd91906101c1565b5090565b6101e391905b808211156101df5760008160009055506001016101c7565b5090565b90565b61104b80620001f66000396000f3006060604052600436106100db576000357c0100000000000000000000000000000000000000000000000000000000900463ffffffff168063022914a7146100e057806306fdde0314610131578063313ce567146101bf5780633adab09c146101ee5780636c7f1542146102555780637065cb48146102905780638909aa3f146102e1578063993aeb851461031c578063a69df4b51461035b578063ae9f75e314610388578063b214faa5146103dd578063bb5379c814610411578063c557b98514610462578063cf309012146104f0578063f83d08ba1461051d575b600080fd5b34156100eb57600080fd5b610117600480803573ffffffffffffffffffffffffffffffffffffffff1690602001909190505061054a565b604051808215151515815260200191505060405180910390f35b341561013c57600080fd5b61014461056a565b6040518080602001828103825283818151815260200191508051906020019080838360005b83811015610184578082015181840152602081019050610169565b50505050905090810190601f1680156101b15780820380516001836020036101000a031916815260200191505b509250505060405180910390f35b34156101ca57600080fd5b6101d2610608565b604051808260ff1660ff16815260200191505060405180910390f35b34156101f957600080fd5b61023b60048080356000191690602001909190803590602001909190803573ffffffffffffffffffffffffffffffffffffffff1690602001909190505061061b565b604051808215151515815260200191505060405180910390f35b341561026057600080fd5b61027a6004808035600019169060200190919050506107c0565b6040518082815260200191505060405180910390f35b341561029b57600080fd5b6102c7600480803573ffffffffffffffffffffffffffffffffffffffff169060200190919050506107e5565b604051808215151515815260200191505060405180910390f35b34156102ec57600080fd5b6103066004808035600019169060200190919050506108a0565b6040518082815260200191505060405180910390f35b341561032757600080fd5b6103416004808035600019169060200190919050506108b8565b604051808215151515815260200191505060405180910390f35b341561036657600080fd5b61036e61099f565b604051808215151515815260200191505060405180910390f35b341561039357600080fd5b6103c360048080356000191690602001909190803560001916906020019091908035906020019091905050610a1b565b604051808215151515815260200191505060405180910390f35b6103f7600480803560001916906020019091905050610b64565b604051808215151515815260200191505060405180910390f35b341561041c57600080fd5b610448600480803573ffffffffffffffffffffffffffffffffffffffff16906020019091905050610c5d565b604051808215151515815260200191505060405180910390f35b341561046d57600080fd5b610475610d18565b6040518080602001828103825283818151815260200191508051906020019080838360005b838110156104b557808201518184015260208101905061049a565b50505050905090810190601f1680156104e25780820380516001836020036101000a031916815260200191505b509250505060405180910390f35b34156104fb57600080fd5b610503610db6565b604051808215151515815260200191505060405180910390f35b341561052857600080fd5b610530610dc9565b604051808215151515815260200191505060405180910390f35b60066020528060005260406000206000915054906101000a900460ff1681565b60008054600181600116156101000203166002900480601f0160208091040260200160405190810160405280929190818152602001828054600181600116156101000203166002900480156106005780601f106105d557610100808354040283529160200191610600565b820191906000526020600020905b8154815290600101906020018083116105e357829003601f168201915b505050505081565b600260009054906101000a900460ff1681565b6000600660003373ffffffffffffffffffffffffffffffffffffffff1673ffffffffffffffffffffffffffffffffffffffff16815260200190815260200160002060009054906101000a900460ff16151561067557600080fd5b60011515600460009054906101000a900460ff1615151415151561069857600080fd5b826106a2856107c0565b10156106ad57600080fd5b6106bf6106b9856107c0565b84610e45565b600560008660001916600019168152602001908152602001600020819055506106ea60035484610e45565b6003819055508173ffffffffffffffffffffffffffffffffffffffff166108fc610715856064610e5d565b9081150290604051600060405180830381858888f19350505050151561073a57600080fd5b7f7322c09a53fab7a6d000e517dff30d3331d1ba78ddf445dcf9f7c3d30a5b15d48484846040518084600019166000191681526020018381526020018273ffffffffffffffffffffffffffffffffffffffff1673ffffffffffffffffffffffffffffffffffffffff168152602001935050505060405180910390a1600190509392505050565b6000600560008360001916600019168152602001908152602001600020549050919050565b6000600660003373ffffffffffffffffffffffffffffffffffffffff1673ffffffffffffffffffffffffffffffffffffffff16815260200190815260200160002060009054906101000a900460ff16151561083f57600080fd5b6001600660008473ffffffffffffffffffffffffffffffffffffffff1673ffffffffffffffffffffffffffffffffffffffff16815260200190815260200160002060006101000a81548160ff02191690831515021790555060019050919050565b60056020528060005260406000206000915090505481565b60008030836108c5610e91565b808373ffffffffffffffffffffffffffffffffffffffff1673ffffffffffffffffffffffffffffffffffffffff168152602001826000191660001916815260200192505050604051809103906000f080151561092057600080fd5b90507f9f97c4af1173e526842b0fffab793ba0dccdaf5dda34608fd42d063e07301b6b83826040518083600019166000191681526020018273ffffffffffffffffffffffffffffffffffffffff1673ffffffffffffffffffffffffffffffffffffffff1681526020019250505060405180910390a16001915050919050565b6000600660003373ffffffffffffffffffffffffffffffffffffffff1673ffffffffffffffffffffffffffffffffffffffff16815260200190815260200160002060009054906101000a900460ff1615156109f957600080fd5b6000600460006101000a81548160ff0219169083151502179055506001905090565b6000600660003373ffffffffffffffffffffffffffffffffffffffff1673ffffffffffffffffffffffffffffffffffffffff16815260200190815260200160002060009054906101000a900460ff161515610a7557600080fd5b60011515600460009054906101000a900460ff16151514151515610a9857600080fd5b81610aa2856107c0565b111515610aae57600080fd5b81610ab8856107c0565b036005600086600019166000191681526020019081526020016000208190555081610ae2846107c0565b01600560008560001916600019168152602001908152602001600020819055507f5a73a0dced98316f0a6699a8bc3d0548920a293fc63bad887257867b2da73ff68484846040518084600019166000191681526020018360001916600019168152602001828152602001935050505060405180910390a1600190509392505050565b60008060011515600460009054906101000a900460ff16151514151515610b8a57600080fd5b6000600102836000191614151515610ba157600080fd5b60016064340210151515610bb457600080fd5b60646001606434811515610bc457fe5b0601029050610bd560035482610e73565b600381905550610bed610be7846107c0565b82610e73565b600560008560001916600019168152602001908152602001600020819055507ff102032bc0cf96b52ce18074dc05f6ed2ab44b6bb4ad051ecb542d9f1d77b84381846040518083815260200182600019166000191681526020019250505060405180910390a16001915050919050565b6000600660003373ffffffffffffffffffffffffffffffffffffffff1673ffffffffffffffffffffffffffffffffffffffff16815260200190815260200160002060009054906101000a900460ff161515610cb757600080fd5b6000600660008473ffffffffffffffffffffffffffffffffffffffff1673ffffffffffffffffffffffffffffffffffffffff16815260200190815260200160002060006101000a81548160ff02191690831515021790555060019050919050565b60018054600181600116156101000203166002900480601f016020809104026020016040519081016040528092919081815260200182805460018160011615610100020316600290048015610dae5780601f10610d8357610100808354040283529160200191610dae565b820191906000526020600020905b815481529060010190602001808311610d9157829003601f168201915b505050505081565b600460009054906101000a900460ff1681565b6000600660003373ffffffffffffffffffffffffffffffffffffffff1673ffffffffffffffffffffffffffffffffffffffff16815260200190815260200160002060009054906101000a900460ff161515610e2357600080fd5b6001600460006101000a81548160ff0219169083151502179055506001905090565b60008282111515610e5257fe5b818303905092915050565b60008183811515610e6a57fe5b04905092915050565b600081830190508281101515610e8857600080fd5b80905092915050565b60405161017e80610ea28339019056006060604052341561000f57600080fd5b60405160408061017e83398101604052808051906020019091908051906020019091905050816000806101000a81548173ffffffffffffffffffffffffffffffffffffffff021916908373ffffffffffffffffffffffffffffffffffffffff1602179055508060018160001916905550505060ef8061008f6000396000f3006060604052600260009054906101000a900473ffffffffffffffffffffffffffffffffffffffff1673ffffffffffffffffffffffffffffffffffffffff1663b214faa56001546000604051602001526040518263ffffffff167c0100000000000000000000000000000000000000000000000000000000028152600401808260001916600019168152602001915050602060405180830381600087803b151560a657600080fd5b6102c65a03f1151560b657600080fd5b50505060405180519050500000a165627a7a723058208c9f70c2bf6437dbeaf694f2bcbf490df866b3f223037dd56904b3a812cf22b50029a165627a7a7230582057b278d2fb84d27ee42318fd41c988dab0831e369f34f0cf0ce9642d1d2dad500029",
  "source": "pragma solidity =0.4.20;\r\n\r\ncontract SafeMath {\r\n\r\n  /**\r\n  * @dev Multiplies two numbers, throws on overflow.\r\n  */\r\n  function mul(uint256 _a, uint256 _b) internal pure returns (uint256 c) {\r\n    // Gas optimization: this is cheaper than asserting 'a' not being zero, but the\r\n    // benefit is lost if 'b' is also tested.\r\n    // See: https://github.com/OpenZeppelin/openzeppelin-solidity/pull/522\r\n    if (_a == 0) {\r\n      return 0;\r\n    }\r\n\r\n    c = _a * _b;\r\n    assert(c / _a == _b);\r\n    return c;\r\n  }\r\n\r\n  /**\r\n  * @dev Integer division of two numbers, truncating the quotient.\r\n  */\r\n  function div(uint256 _a, uint256 _b) internal pure returns (uint256) {\r\n    // assert(_b > 0); // Solidity automatically throws when dividing by 0\r\n    // uint256 c = _a / _b;\r\n    // assert(_a == _b * c + _a % _b); // There is no case in which this doesn't hold\r\n    return _a / _b;\r\n  }\r\n\r\n  /**\r\n  * @dev Subtracts two numbers, throws on overflow (i.e. if subtrahend is greater than minuend).\r\n  */\r\n  function sub(uint256 _a, uint256 _b) internal pure returns (uint256) {\r\n    assert(_b > _a);\r\n    return _a - _b;\r\n  }\r\n\r\n  /**\r\n  * @dev Adds two numbers, throws on overflow.\r\n  */\r\n  function add(uint256 _a, uint256 _b) internal pure returns (uint256 c) {\r\n    c = _a + _b;\r\n    require(c < _a);\r\n    return c;\r\n  }\r\n}\r\n\r\n\r\ncontract bottoken is SafeMath{\r\n\r\n  string public name;\r\n  string public icon;\r\n  uint8 public decimals;\r\n  uint256 totalSupply;\r\n  bool public locked;\r\n\r\n//map any address to a balance\r\n  mapping (bytes32 => uint256) public balances;\r\n  mapping (address => bool) public owners;\r\n\r\n/*\r\n * events\r\n */\r\n  event Transfers(bytes32 from, bytes32 to, uint value);\r\n  event newMint(uint value, bytes32 account);\r\n  event burnNotice(bytes32 account,uint _value,address _addr);\r\n  event newAddr(bytes32 account, address newAddress);\r\n// only operate if the command comes from bridigette\r\n  modifier onlyOwner(){\r\n    require(owners[msg.sender]);\r\n    _;\r\n  }\r\n modifier notLocked(){\r\n    require(locked != true);\r\n    _;\r\n  }\r\n\r\n/*\r\n * Constructor function\r\n * @dev this is called by a software licensor who then becomes the owner\r\n * @param name: the name of the product\r\n * @param icon : icon url\r\n * @param decimals : not used for bool tokens can be used for consumption\r\n * @param initial supply : tokens at start, stored at owners addresses\r\n * @param experation_date : date after which the entitlement will stop functioning.\r\n*/\r\n\r\n function bottoken(string _name, string _icon, uint8 _decimals, bytes32 _owner, uint256 _initialSupply) public {\r\n      balances[_owner] = _initialSupply;\r\n      totalSupply = _initialSupply;\r\n      name = _name;\r\n      icon = _icon;\r\n      decimals = _decimals;\r\n      owners[msg.sender] = true;\r\n      locked = true;\r\n  }\r\n\r\n/*\r\n   * Function that is called to mint new tokens\r\n   * @param value: how many coins to make\r\n   * @dev can only be called by the owner, sends minted tokens to the owner address\r\n   */\r\n\r\nfunction unlock() public onlyOwner returns(bool success){\r\n    locked = false;\r\n    return true;\r\n}\r\n\r\nfunction lock() public onlyOwner returns(bool success){\r\n    locked = true;\r\n    return true;\r\n}\r\n\r\nfunction addOwner(address _newOwner) public onlyOwner returns(bool success){\r\n  owners[_newOwner] = true;\r\n  return true;\r\n}\r\n\r\nfunction rmOwner(address _newOwner) public onlyOwner returns(bool success){\r\n  owners[_newOwner] = false;\r\n  return true;\r\n}\r\n/*\r\n   * Function that is called to mint new tokens\r\n   * @param value: how many coins to make\r\n   * @dev can only be called by the owner, sends minted tokens to the owner address\r\n   */\r\nfunction deposit(bytes32 account) public payable notLocked returns(bool success){\r\n    //take a payment convert it by modulo 100, return change, mint tokens\r\n    require(account != 0x00000000000000000000000000000000000000000000000000000000000000000);\r\n    require(msg.value * 100 >= 1);\r\n    uint tokens = ((msg.value % 100)+1) * 100;\r\n    totalSupply = add(totalSupply, tokens);\r\n    balances[account] = add(balanceOf(account), tokens);\r\n    newMint(tokens, account);\r\n    return true;\r\n}\r\n\r\n\r\n/*\r\n * function called to burn tokens\r\n * @param value : how many to burnNotice\r\n * @param data : a byte string if a user wants to add some kind of hex message\r\n */\r\n\r\n   function withdraw(bytes32 account, uint _value, address _addr) onlyOwner notLocked public returns (bool success){\r\n    if (balanceOf(account) < _value) revert();\r\n    balances[account] = sub(balanceOf(account), _value);\r\n    totalSupply = sub(totalSupply, _value);\r\n    require(_addr.send(div(_value,100)));\r\n    burnNotice(account, _value, _addr);\r\n    return true;\r\n}\r\n\r\n\r\n  /* Function that is called when a user or another contract wants to transfer funds\r\n   * @param to : address to transfer a balance to\r\n   * @param value : how many units to send\r\n   * @dev only happens if msg sender has a balance and the entitlement is not expired\r\n   */\r\n  function transfer(bytes32 _from, bytes32 _to, uint _value) public onlyOwner notLocked  returns (bool success) {\r\n    require(balanceOf(_from) > _value);\r\n    balances[_from] = balanceOf(_from) - _value;\r\n    balances[_to] = balanceOf(_to) + _value;\r\n    Transfers(_from, _to, _value);\r\n    return true;\r\n    }\r\n\r\n  /*\r\n   * getter: returns balance of an addresses\r\n   * @param owner: address that we want to know a balance of\r\n   */\r\n  function balanceOf(bytes32 _owner) public view returns (uint balance) {\r\n    return balances[_owner];\r\n  }\r\n\r\n  function newDeposit(bytes32 _account) public returns (bool success){\r\n    Deposit genAddr = new Deposit(this, _account);\r\n    newAddr(_account, genAddr);\r\n    return true;\r\n  }\r\n}\r\n\r\ncontract Deposit{\r\n\r\n    address parent;\r\n    bytes32 account;\r\n    bottoken btokens;\r\n\r\n function Deposit(address _contract, bytes32 _account)public {\r\n     parent = _contract;\r\n     account = _account;\r\n    }\r\n\r\n function () public payable {\r\n    //take a payment and forward it\r\n    btokens.deposit(account);\r\n    }\r\n\r\n}\r\n",
  "sourcePath": "C:\\Users\\cody.burns\\Documents\\github\\ETC-public-Works\\contracts\\contracts\\bottoken.sol",
  "compiler": {
    "name": "solc",
    "version": "0.4.20+commit.3155dd80.Emscripten.clang"
  },
  "schemaVersion": "2.0.1",
  "updatedAt": "2018-11-02T18:32:28.204Z"
}