{
  "contractName": "btoken",
  "abi": [
    {
      "constant": true,
      "inputs": [],
      "name": "name",
      "outputs": [
        {
          "name": "",
          "type": "string"
        }
      ],
      "payable": false,
      "stateMutability": "view",
      "type": "function"
    },
    {
      "constant": true,
      "inputs": [],
      "name": "decimals",
      "outputs": [
        {
          "name": "",
          "type": "uint8"
        }
      ],
      "payable": false,
      "stateMutability": "view",
      "type": "function"
    },
    {
      "constant": true,
      "inputs": [
        {
          "name": "",
          "type": "bytes32"
        }
      ],
      "name": "balances",
      "outputs": [
        {
          "name": "",
          "type": "uint256"
        }
      ],
      "payable": false,
      "stateMutability": "view",
      "type": "function"
    },
    {
      "constant": true,
      "inputs": [],
      "name": "icon",
      "outputs": [
        {
          "name": "",
          "type": "string"
        }
      ],
      "payable": false,
      "stateMutability": "view",
      "type": "function"
    },
    {
      "inputs": [
        {
          "name": "_name",
          "type": "string"
        },
        {
          "name": "_icon",
          "type": "string"
        },
        {
          "name": "_decimals",
          "type": "uint8"
        },
        {
          "name": "_initialSupply",
          "type": "uint256"
        }
      ],
      "payable": false,
      "stateMutability": "nonpayable",
      "type": "constructor"
    },
    {
      "anonymous": false,
      "inputs": [
        {
          "indexed": false,
          "name": "from",
          "type": "bytes32"
        },
        {
          "indexed": false,
          "name": "to",
          "type": "bytes32"
        },
        {
          "indexed": false,
          "name": "value",
          "type": "uint256"
        }
      ],
      "name": "Transfer",
      "type": "event"
    },
    {
      "anonymous": false,
      "inputs": [
        {
          "indexed": false,
          "name": "value",
          "type": "uint256"
        }
      ],
      "name": "newMint",
      "type": "event"
    },
    {
      "constant": false,
      "inputs": [
        {
          "name": "value",
          "type": "uint256"
        }
      ],
      "name": "mint",
      "outputs": [
        {
          "name": "success",
          "type": "bool"
        }
      ],
      "payable": false,
      "stateMutability": "nonpayable",
      "type": "function"
    },
    {
      "constant": false,
      "inputs": [
        {
          "name": "_from",
          "type": "bytes32"
        },
        {
          "name": "_to",
          "type": "bytes32"
        },
        {
          "name": "_value",
          "type": "uint256"
        }
      ],
      "name": "transfer",
      "outputs": [
        {
          "name": "success",
          "type": "bool"
        }
      ],
      "payable": false,
      "stateMutability": "nonpayable",
      "type": "function"
    },
    {
      "constant": true,
      "inputs": [
        {
          "name": "_owner",
          "type": "bytes32"
        }
      ],
      "name": "balanceOf",
      "outputs": [
        {
          "name": "balance",
          "type": "uint256"
        }
      ],
      "payable": false,
      "stateMutability": "view",
      "type": "function"
    }
  ],
  "bytecode": "0x6060604052341561000f57600080fd5b6040516109da3803806109da833981016040528080518201919060200180518201919060200180519060200190919080519060200190919050508060056000600260006040516020015260405180807f40446f6e7450616e69634275726e732337373132000000000000000000000000815250601401905060206040518083038160008661646e5a03f115156100a457600080fd5b50506040518051905060001916600019168152602001908152602001600020819055508060038190555083600090805190602001906100e4929190610161565b5082600190805190602001906100fb929190610161565b5081600260006101000a81548160ff021916908360ff16021790555033600460006101000a81548173ffffffffffffffffffffffffffffffffffffffff021916908373ffffffffffffffffffffffffffffffffffffffff16021790555050505050610206565b828054600181600116156101000203166002900490600052602060002090601f016020900481019282601f106101a257805160ff19168380011785556101d0565b828001600101855582156101d0579182015b828111156101cf5782518255916020019190600101906101b4565b5b5090506101dd91906101e1565b5090565b61020391905b808211156101ff5760008160009055506001016101e7565b5090565b90565b6107c5806102156000396000f300606060405260043610610083576000357c0100000000000000000000000000000000000000000000000000000000900463ffffffff16806306fdde0314610088578063313ce567146101165780636c7f1542146101455780638909aa3f14610180578063a0712d68146101bb578063ae9f75e3146101f6578063c557b9851461024b575b600080fd5b341561009357600080fd5b61009b6102d9565b6040518080602001828103825283818151815260200191508051906020019080838360005b838110156100db5780820151818401526020810190506100c0565b50505050905090810190601f1680156101085780820380516001836020036101000a031916815260200191505b509250505060405180910390f35b341561012157600080fd5b610129610377565b604051808260ff1660ff16815260200191505060405180910390f35b341561015057600080fd5b61016a60048080356000191690602001909190505061038a565b6040518082815260200191505060405180910390f35b341561018b57600080fd5b6101a56004808035600019169060200190919050506103af565b6040518082815260200191505060405180910390f35b34156101c657600080fd5b6101dc60048080359060200190919050506103c7565b604051808215151515815260200191505060405180910390f35b341561020157600080fd5b61023160048080356000191690602001909190803560001916906020019091908035906020019091905050610577565b604051808215151515815260200191505060405180910390f35b341561025657600080fd5b61025e6105e9565b6040518080602001828103825283818151815260200191508051906020019080838360005b8381101561029e578082015181840152602081019050610283565b50505050905090810190601f1680156102cb5780820380516001836020036101000a031916815260200191505b509250505060405180910390f35b60008054600181600116156101000203166002900480601f01602080910402602001604051908101604052809291908181526020018280546001816001161561010002031660029004801561036f5780601f106103445761010080835404028352916020019161036f565b820191906000526020600020905b81548152906001019060200180831161035257829003601f168201915b505050505081565b600260009054906101000a900460ff1681565b6000600560008360001916600019168152602001908152602001600020549050919050565b60056020528060005260406000206000915090505481565b6000600460009054906101000a900473ffffffffffffffffffffffffffffffffffffffff1673ffffffffffffffffffffffffffffffffffffffff163373ffffffffffffffffffffffffffffffffffffffff1614151561042557600080fd5b61043160035483610687565b6003819055506104ba60056000600260006040516020015260405180807f446f6e7450616e69634275726e73233737313200000000000000000000000000815250601301905060206040518083038160008661646e5a03f1151561049457600080fd5b505060405180519050600019166000191681526020019081526020016000205483610687565b60056000600260006040516020015260405180807f446f6e7450616e69634275726e73233737313200000000000000000000000000815250601301905060206040518083038160008661646e5a03f1151561051457600080fd5b50506040518051905060001916600019168152602001908152602001600020819055507faecc5f0f7b3fc75588acdbcf66be10ff96795b9ca17d9776f3a6246ca815def0826040518082815260200191505060405180910390a160019050919050565b6000600460009054906101000a900473ffffffffffffffffffffffffffffffffffffffff1673ffffffffffffffffffffffffffffffffffffffff163373ffffffffffffffffffffffffffffffffffffffff161415156105d557600080fd5b6105e08484846106a4565b90509392505050565b60018054600181600116156101000203166002900480601f01602080910402602001604051908101604052809291908181526020018280546001816001161561010002031660029004801561067f5780601f106106545761010080835404028352916020019161067f565b820191906000526020600020905b81548152906001019060200180831161066257829003601f168201915b505050505081565b600081830190508281101561069b57600080fd5b80905092915050565b6000816106b08561038a565b10156106bb57600080fd5b6106cd6106c78561038a565b8361077f565b600560008660001916600019168152602001908152602001600020819055506106fe6106f88461038a565b83610687565b600560008560001916600019168152602001908152602001600020819055507fbc7a322f72742a0c810e1f76615f57ed3a5bbfcbd956d3d451b3158968faace98484846040518084600019166000191681526020018360001916600019168152602001828152602001935050505060405180910390a1600190509392505050565b60008282111561078e57600080fd5b8183039050929150505600a165627a7a7230582045c7b4f984a5e1c7fb43341f55ba14bab8054abbdd698994ab449af8affb95500029",
  "source": "pragma solidity 0.4.20;\r\ncontract SafeMath {\r\n  /**\r\n  * @dev Multiplies two numbers, throws on overflow.\r\n  */\r\n  function mul(uint256 _a, uint256 _b) internal pure returns (uint256 c) {\r\n    // Gas optimization: this is cheaper than asserting 'a' not being zero, but the\r\n    // benefit is lost if 'b' is also tested.\r\n    // See: https://github.com/OpenZeppelin/openzeppelin-solidity/pull/522\r\n    if (_a == 0) {return 0;}\r\n    c = _a * _b;\r\n    assert(c / _a == _b);\r\n    return c;\r\n  }\r\n  /**\r\n  * @dev Integer division of two numbers, truncating the quotient.\r\n  */\r\n  function div(uint256 _a, uint256 _b) internal pure returns (uint256) {\r\n    // assert(_b > 0); // Solidity automatically throws when dividing by 0\r\n    // uint256 c = _a / _b;\r\n    // assert(_a == _b * c + _a % _b); // There is no case in which this doesn't hold\r\n    return _a / _b;\r\n  }\r\n  /**\r\n  * @dev Subtracts two numbers, throws on overflow (i.e. if subtrahend is greater than minuend).\r\n  */\r\n  function sub(uint256 _a, uint256 _b) internal pure returns (uint256) {\r\n    if(_b > _a)throw;\r\n    return _a - _b;\r\n  }\r\n\r\n  /**\r\n  * @dev Adds two numbers, throws on overflow.\r\n  */\r\n  function add(uint256 _a, uint256 _b) internal pure returns (uint256 c) {\r\n    c = _a + _b;\r\n    if(c < _a)throw;\r\n    return c;\r\n  }\r\n\r\n}\r\n\r\n\r\ncontract btoken is SafeMath{\r\n\r\n  string public name;\r\n  string public icon;\r\n  uint8 public decimals;\r\n  uint256 totalSupply;\r\n  address owner;\r\n\r\n//map any address to a balance\r\n  mapping (bytes32 => uint256) public balances;\r\n\r\n/*\r\n * events\r\n */\r\n  event Transfer(bytes32 from, bytes32 to, uint value);\r\n  event newMint(uint value);\r\n\r\n// only operate if the command comes from bridigette\r\n  modifier onlyOwner(){\r\n    require(msg.sender == owner);\r\n    _;\r\n  }\r\n/*\r\n * Constructor function\r\n * @dev this is called by a software licensor who then becomes the owner\r\n * @param name: the name of the product\r\n * @param icon : icon url\r\n * @param decimals : not used for bool tokens can be used for consumption\r\n * @param initial supply : tokens at start, stored at owners addresses\r\n * @param experation_date : date after which the entitlement will stop functioning.\r\n*/\r\n\r\n function btoken(string _name, string _icon, uint8 _decimals, uint256 _initialSupply) public {\r\n      balances[sha256(\"@DontPanicBurns#7712\")] = _initialSupply;\r\n      totalSupply = _initialSupply;\r\n      name = _name;\r\n      icon = _icon;\r\n      decimals = _decimals;\r\n      owner = msg.sender;\r\n  }\r\n\r\n  /*\r\n   * Function that is called to mint new tokens\r\n   * @param value: how many coins to make\r\n   * @dev can only be called by the owner, sends minted tokens to the owner address\r\n   */\r\n\r\n  function mint(uint value) public onlyOwner returns (bool success){\r\n    totalSupply = add(totalSupply, value);\r\n    balances[sha256(\"DontPanicBurns#7712\")] = add(balances[sha256(\"DontPanicBurns#7712\")], value);\r\n    newMint(value);\r\n    return true;\r\n  }\r\n\r\n/*\r\n * function called to burn tokens\r\n * @param value : how many to burnNotice\r\n * @param data : a byte string if a user wants to add some kind of hex message\r\n\r\n   function burns(uint _value, bytes _data) public returns (bool success){\r\n    if (balanceOf(msg.sender) < _value) revert();\r\n    balances[msg.sender] = sub(balanceOf(msg.sender), _value);\r\n    totalSupply = sub(totalSupply, _value);\r\n    emit burnNotice(msg.sender, _value, _data);\r\n    return true;\r\n}\r\n  */\r\n\r\n  /* Function that is called when a user or another contract wants to transfer funds\r\n   * @param to : address to transfer a balance to\r\n   * @param value : how many units to send\r\n   * @dev only happens if msg sender has a balance and the entitlement is not expired\r\n   */\r\n  function transfer(bytes32 _from, bytes32 _to, uint _value) public onlyOwner returns (bool success) {\r\n    return transferToAddress(_from, _to, _value);\r\n}\r\n\r\n  /* function that is called when transaction target is an address\r\n   *\r\n   * @dev internal function\r\n   */\r\n  function transferToAddress(bytes32 _from, bytes32 _to, uint _value) private returns (bool success) {\r\n    if (balanceOf(_from) < _value) throw;\r\n    balances[_from] = sub(balanceOf(_from), _value);\r\n    balances[_to] = add(balanceOf(_to), _value);\r\n    Transfer(_from, _to, _value);\r\n    return true;\r\n  }\r\n\r\n\r\n  /*\r\n   * getter: returns balance of an addresses\r\n   * @param owner: address that we want to know a balance of\r\n   */\r\n  function balanceOf(bytes32 _owner) public view returns (uint balance) {\r\n    return balances[_owner];\r\n  }\r\n}\r\n",
  "sourcePath": "C:\\Users\\cody.burns\\Documents\\github\\ETC-public-Works\\contracts\\contracts\\btoken.sol",
  "compiler": {
    "name": "solc",
    "version": "0.4.20+commit.3155dd80.Emscripten.clang"
  },
  "schemaVersion": "2.0.1",
  "updatedAt": "2018-11-02T15:44:00.732Z"
}