{
  "contractName": "eventTracker",
  "abi": [
    {
      "constant": true,
      "inputs": [],
      "name": "totalEvents",
      "outputs": [
        {
          "name": "",
          "type": "uint256"
        }
      ],
      "payable": false,
      "stateMutability": "view",
      "type": "function"
    },
    {
      "inputs": [],
      "payable": false,
      "stateMutability": "nonpayable",
      "type": "constructor"
    },
    {
      "payable": false,
      "stateMutability": "nonpayable",
      "type": "fallback"
    },
    {
      "anonymous": false,
      "inputs": [
        {
          "indexed": false,
          "name": "_team",
          "type": "string"
        },
        {
          "indexed": false,
          "name": "_eventTitle",
          "type": "string"
        }
      ],
      "name": "eventAdded",
      "type": "event"
    },
    {
      "anonymous": false,
      "inputs": [
        {
          "indexed": false,
          "name": "_team",
          "type": "string"
        },
        {
          "indexed": false,
          "name": "_eventTitle",
          "type": "string"
        }
      ],
      "name": "eventDel",
      "type": "event"
    },
    {
      "constant": false,
      "inputs": [
        {
          "name": "_newAdmin",
          "type": "address"
        }
      ],
      "name": "addAdmin",
      "outputs": [
        {
          "name": "success",
          "type": "bool"
        }
      ],
      "payable": false,
      "stateMutability": "nonpayable",
      "type": "function"
    },
    {
      "constant": false,
      "inputs": [
        {
          "name": "_oldAdmin",
          "type": "address"
        }
      ],
      "name": "removeAdmin",
      "outputs": [
        {
          "name": "success",
          "type": "bool"
        }
      ],
      "payable": false,
      "stateMutability": "nonpayable",
      "type": "function"
    },
    {
      "constant": false,
      "inputs": [
        {
          "name": "_team",
          "type": "string"
        },
        {
          "name": "_eventTitle",
          "type": "string"
        },
        {
          "name": "_eventUrl",
          "type": "string"
        },
        {
          "name": "_eventBlock",
          "type": "uint256"
        },
        {
          "name": "_eventDate",
          "type": "string"
        }
      ],
      "name": "addEvent",
      "outputs": [
        {
          "name": "success",
          "type": "bool"
        }
      ],
      "payable": false,
      "stateMutability": "nonpayable",
      "type": "function"
    },
    {
      "constant": false,
      "inputs": [
        {
          "name": "_eventNumber",
          "type": "uint256"
        }
      ],
      "name": "delEvent",
      "outputs": [
        {
          "name": "success",
          "type": "bool"
        }
      ],
      "payable": false,
      "stateMutability": "nonpayable",
      "type": "function"
    },
    {
      "constant": true,
      "inputs": [
        {
          "name": "_eventNumber",
          "type": "uint256"
        }
      ],
      "name": "getEvent",
      "outputs": [
        {
          "name": "_team",
          "type": "string"
        },
        {
          "name": "_title",
          "type": "string"
        },
        {
          "name": "_url",
          "type": "string"
        },
        {
          "name": "_block",
          "type": "uint256"
        },
        {
          "name": "_date",
          "type": "string"
        }
      ],
      "payable": false,
      "stateMutability": "view",
      "type": "function"
    },
    {
      "constant": false,
      "inputs": [],
      "name": "killshot",
      "outputs": [],
      "payable": false,
      "stateMutability": "nonpayable",
      "type": "function"
    }
  ],
  "bytecode": "0x6060604052341561000f57600080fd5b336000806101000a81548173ffffffffffffffffffffffffffffffffffffffff021916908373ffffffffffffffffffffffffffffffffffffffff16021790555060006001819055506001600360003373ffffffffffffffffffffffffffffffffffffffff1673ffffffffffffffffffffffffffffffffffffffff16815260200190815260200160002060006101000a81548160ff021916908315150217905550610fe2806100be6000396000f300606060405260043610610083576000357c0100000000000000000000000000000000000000000000000000000000900463ffffffff1680631785f53c1461009d5780636d1884e0146100ee57806370480275146102d5578063a1d8296914610326578063a4e8a50d1461033b578063ba87068614610482578063dae43960146104ab575b341561008e57600080fd5b6001600014151561009b57fe5b005b34156100a857600080fd5b6100d4600480803573ffffffffffffffffffffffffffffffffffffffff169060200190919050506104e6565b604051808215151515815260200191505060405180910390f35b34156100f957600080fd5b61010f60048080359060200190919050506105a4565b604051808060200180602001806020018681526020018060200185810385528a818151815260200191508051906020019080838360005b83811015610161578082015181840152602081019050610146565b50505050905090810190601f16801561018e5780820380516001836020036101000a031916815260200191505b50858103845289818151815260200191508051906020019080838360005b838110156101c75780820151818401526020810190506101ac565b50505050905090810190601f1680156101f45780820380516001836020036101000a031916815260200191505b50858103835288818151815260200191508051906020019080838360005b8381101561022d578082015181840152602081019050610212565b50505050905090810190601f16801561025a5780820380516001836020036101000a031916815260200191505b50858103825286818151815260200191508051906020019080838360005b83811015610293578082015181840152602081019050610278565b50505050905090810190601f1680156102c05780820380516001836020036101000a031916815260200191505b50995050505050505050505060405180910390f35b34156102e057600080fd5b61030c600480803573ffffffffffffffffffffffffffffffffffffffff169060200190919050506108c4565b604051808215151515815260200191505060405180910390f35b341561033157600080fd5b610339610982565b005b341561034657600080fd5b610468600480803590602001908201803590602001908080601f0160208091040260200160405190810160405280939291908181526020018383808284378201915050505050509190803590602001908201803590602001908080601f0160208091040260200160405190810160405280939291908181526020018383808284378201915050505050509190803590602001908201803590602001908080601f0160208091040260200160405190810160405280939291908181526020018383808284378201915050505050509190803590602001909190803590602001908201803590602001908080601f01602080910402602001604051908101604052809392919081815260200183838082843782019150505050505091905050610a17565b604051808215151515815260200191505060405180910390f35b341561048d57600080fd5b610495610c23565b6040518082815260200191505060405180910390f35b34156104b657600080fd5b6104cc6004808035906020019091905050610c29565b604051808215151515815260200191505060405180910390f35b60008060009054906101000a900473ffffffffffffffffffffffffffffffffffffffff1673ffffffffffffffffffffffffffffffffffffffff163373ffffffffffffffffffffffffffffffffffffffff1614151561054357600080fd5b6000600360008473ffffffffffffffffffffffffffffffffffffffff1673ffffffffffffffffffffffffffffffffffffffff16815260200190815260200160002060006101000a81548160ff02191690831515021790555060019050919050565b6105ac610e9a565b6105b4610e9a565b6105bc610e9a565b60006105c6610e9a565b6105ce610eae565b6002600088815260200190815260200160002060c06040519081016040529081600082018054600181600116156101000203166002900480601f0160208091040260200160405190810160405280929190818152602001828054600181600116156101000203166002900480156106865780601f1061065b57610100808354040283529160200191610686565b820191906000526020600020905b81548152906001019060200180831161066957829003601f168201915b50505050508152602001600182018054600181600116156101000203166002900480601f0160208091040260200160405190810160405280929190818152602001828054600181600116156101000203166002900480156107285780601f106106fd57610100808354040283529160200191610728565b820191906000526020600020905b81548152906001019060200180831161070b57829003601f168201915b50505050508152602001600282018054600181600116156101000203166002900480601f0160208091040260200160405190810160405280929190818152602001828054600181600116156101000203166002900480156107ca5780601f1061079f576101008083540402835291602001916107ca565b820191906000526020600020905b8154815290600101906020018083116107ad57829003601f168201915b5050505050815260200160038201548152602001600482018054600181600116156101000203166002900480601f0160208091040260200160405190810160405280929190818152602001828054600181600116156101000203166002900480156108765780601f1061084b57610100808354040283529160200191610876565b820191906000526020600020905b81548152906001019060200180831161085957829003601f168201915b50505050508152602001600582015481525050905080600001518160200151826040015183606001518460800151849450839350829250809050955095509550955095505091939590929450565b60008060009054906101000a900473ffffffffffffffffffffffffffffffffffffffff1673ffffffffffffffffffffffffffffffffffffffff163373ffffffffffffffffffffffffffffffffffffffff1614151561092157600080fd5b6001600360008473ffffffffffffffffffffffffffffffffffffffff1673ffffffffffffffffffffffffffffffffffffffff16815260200190815260200160002060006101000a81548160ff02191690831515021790555060019050919050565b6000809054906101000a900473ffffffffffffffffffffffffffffffffffffffff1673ffffffffffffffffffffffffffffffffffffffff163373ffffffffffffffffffffffffffffffffffffffff161415156109dd57600080fd5b6000809054906101000a900473ffffffffffffffffffffffffffffffffffffffff1673ffffffffffffffffffffffffffffffffffffffff16ff5b600080600360003373ffffffffffffffffffffffffffffffffffffffff1673ffffffffffffffffffffffffffffffffffffffff16815260200190815260200160002060009054906101000a900460ff161515610a7257600080fd5b6002600060018054018152602001908152602001600020905086816000019080519060200190610aa3929190610efd565b5085816001019080519060200190610abc929190610efd565b5084816002019080519060200190610ad5929190610efd565b5083816003018190555082816004019080519060200190610af7929190610efd565b5042816005018190555060018054016001819055507fd213ad3ee8bc49ffb25994b6856a5aa4421ef0de4c5481f2df975e843ad25d228787604051808060200180602001838103835285818151815260200191508051906020019080838360005b83811015610b73578082015181840152602081019050610b58565b50505050905090810190601f168015610ba05780820380516001836020036101000a031916815260200191505b50838103825284818151815260200191508051906020019080838360005b83811015610bd9578082015181840152602081019050610bbe565b50505050905090810190601f168015610c065780820380516001836020036101000a031916815260200191505b5094505050505060405180910390a1600191505095945050505050565b60015481565b600080600360003373ffffffffffffffffffffffffffffffffffffffff1673ffffffffffffffffffffffffffffffffffffffff16815260200190815260200160002060009054906101000a900460ff161515610c8457600080fd5b6002600084815260200190815260200160002090507fd9500ccee115826539f53d506d2ed04f7e536795e563a1a80b72b71aa8046bc48160000182600101604051808060200180602001838103835285818154600181600116156101000203166002900481526020019150805460018160011615610100020316600290048015610d4f5780601f10610d2457610100808354040283529160200191610d4f565b820191906000526020600020905b815481529060010190602001808311610d3257829003601f168201915b5050838103825284818154600181600116156101000203166002900481526020019150805460018160011615610100020316600290048015610dd25780601f10610da757610100808354040283529160200191610dd2565b820191906000526020600020905b815481529060010190602001808311610db557829003601f168201915b505094505050505060405180910390a16020604051908101604052806000815250816000019080519060200190610e0a929190610efd565b506020604051908101604052806000815250816001019080519060200190610e33929190610efd565b506020604051908101604052806000815250816002019080519060200190610e5c929190610efd565b50600081600301819055506020604051908101604052806000815250816004019080519060200190610e8f929190610efd565b506001915050919050565b602060405190810160405280600081525090565b60c060405190810160405280610ec2610f7d565b8152602001610ecf610f7d565b8152602001610edc610f7d565b815260200160008152602001610ef0610f7d565b8152602001600081525090565b828054600181600116156101000203166002900490600052602060002090601f016020900481019282601f10610f3e57805160ff1916838001178555610f6c565b82800160010185558215610f6c579182015b82811115610f6b578251825591602001919060010190610f50565b5b509050610f799190610f91565b5090565b602060405190810160405280600081525090565b610fb391905b80821115610faf576000816000905550600101610f97565b5090565b905600a165627a7a7230582089b8dc446821db0f556d0423a6d382dbf5bf41cd56aeff0071966f0f501f254a0029",
  "source": "pragma solidity ^0.4.19;\r\n\r\ncontract owned{\r\n  address owner;\r\n  function owned () public {owner = msg.sender;}\r\n  modifier onlyOwner {\r\n          require(msg.sender == owner);\r\n          _;\r\n          }\r\n}\r\n\r\ncontract eventTracker is owned{\r\n\r\n////////////////\r\n//Global VARS//////////////////////////////////////////////////////////////////////////\r\n//////////////\r\n\r\n/* int */\r\n\r\n    uint public totalEvents;\r\n\r\n    struct eventInfo {\r\n        string team;\r\n        string eventTitle;\r\n        string eventUrl;\r\n        uint eventBlock;\r\n        string eventDate;\r\n        uint dateAdded;\r\n    }\r\n\r\n///////////\r\n//MAPPING/////////////////////////////////////////////////////////////////////////////\r\n///////////\r\n\r\n    mapping (uint=>eventInfo) eventLog;\r\n    mapping (address=>bool) admins;\r\n///////////\r\n//EVENTS////////////////////////////////////////////////////////////////////////////\r\n//////////\r\n\r\n    event eventAdded(string _team, string _eventTitle);\r\n    event eventDel(string _team, string _eventTitle);\r\n\r\n/////////////\r\n//MODIFIERS////////////////////////////////////////////////////////////////////\r\n////////////\r\n\r\nmodifier onlyAdmin() {\r\n    require(admins[msg.sender]);\r\n    _;\r\n\r\n\r\n}\r\n\r\n//////////////\r\n//Operations////////////////////////////////////////////////////////////////////////\r\n//////////////\r\n\r\n/* init */\r\nfunction eventTracker() public {\r\n    totalEvents = 0;\r\n    admins[msg.sender] = true;\r\n}\r\n\r\n/* public */\r\nfunction () public {\r\n    assert(0 == 1);\r\n}\r\n\r\n\r\n/* only admins */\r\n\r\nfunction addAdmin(address _newAdmin) public onlyOwner returns (bool success){\r\n    admins[_newAdmin] = true;\r\n    return true;\r\n}\r\n\r\nfunction removeAdmin(address _oldAdmin) public onlyOwner returns (bool success){\r\n    admins[_oldAdmin] = false;\r\n    return true;\r\n}\r\n\r\n\r\nfunction addEvent(string _team, string _eventTitle, string _eventUrl, uint _eventBlock,string _eventDate) public onlyAdmin returns (bool success){\r\n    eventInfo storage EI = eventLog[totalEvents + 1];\r\n    EI.team = _team;\r\n    EI.eventTitle = _eventTitle;\r\n    EI.eventUrl = _eventUrl;\r\n    EI.eventBlock = _eventBlock;\r\n    EI.eventDate = _eventDate;\r\n    EI.dateAdded = now;\r\n    totalEvents = totalEvents + 1;\r\n    eventAdded( _team, _eventTitle);\r\n    return true;\r\n}\r\n\r\nfunction delEvent(uint _eventNumber) public onlyAdmin returns (bool success){\r\n    eventInfo storage EI = eventLog[_eventNumber];\r\n    eventDel( EI.team, EI.eventTitle);\r\n    EI.team = \"\";\r\n    EI.eventTitle = \"\";\r\n    EI.eventUrl = \"\";\r\n    EI.eventBlock = 0;\r\n    EI.eventDate = \"\";\r\n    return true;\r\n}\r\n\r\n\r\n////////////\r\n//OUTPUTS///////////////////////////////////////////////////////////////////////\r\n//////////\r\n\r\n/* public */\r\n\r\nfunction getEvent(uint _eventNumber) public view returns (string _team, string _title, string _url, uint _block, string _date){\r\n    eventInfo memory EI = eventLog[_eventNumber];\r\n    return (EI.team, EI.eventTitle, EI.eventUrl, EI.eventBlock, EI.eventDate);\r\n}\r\n\r\n////////////\r\n//SAFETY ////////////////////////////////////////////////////////////////////\r\n//////////\r\n//safety switches consider removing for production\r\n//clean up after contract is no longer needed\r\n\r\nfunction killshot() onlyOwner public {selfdestruct(owner);}\r\n}\r\n\r\n\r\n/////////////////////////////////////////////////////////////////////////////\r\n// 88888b   d888b  88b  88 8 888888         _.-----._\r\n// 88   88 88   88 888b 88 P   88   \\)|)_ ,'         `. _))|)\r\n// 88   88 88   88 88`8b88     88    );-'/             \\`-:(\r\n// 88   88 88   88 88 `888     88   //  :               :  \\\\   .\r\n// 88888P   T888P  88  `88     88  //_,'; ,.         ,. |___\\\\\r\n//    .           __,...,--.       `---':(  `-.___.-'  );----'\r\n//              ,' :    |   \\            \\`. `'-'-'' ,'/\r\n//             :   |    ;   ::            `.`-.,-.-.','\r\n//     |    ,-.|   :  _//`. ;|              ``---\\` :\r\n//   -(o)- (   \\ .- \\  `._// |    *               `.'       *\r\n//     |   |\\   :   : _ |.-  :              .        .\r\n//     .   :\\: -:  _|\\_||  .-(    _..----..\r\n//         :_:  _\\\\_`.--'  _  \\,-'      __ \\\r\n//         .` \\\\_,)--'/ .'    (      ..'--`'          ,-.\r\n//         |.- `-'.-               ,'                (///)\r\n//         :  ,'     .            ;             *     `-'\r\n//   *     :         :           /\r\n//          \\      ,'         _,'   88888b   888    88b  88 88  d888b  88\r\n//           `._       `-  ,-'      88   88 88 88   888b 88 88 88   `  88\r\n//            : `--..     :        *88888P 88   88  88`8b88 88 88      88\r\n//        .   |           |         88    d8888888b 88 `888 88 88   ,  `\"\t.\r\n//            |           |         88    88     8b 88  `88 88  T888P  88\r\n/////////////////////////////////////////////////////////////////////////\r\n",
  "sourcePath": "C:\\Users\\cody.burns\\Documents\\github\\ETC-public-Works\\contracts\\contracts\\eventTracker.sol",
  "compiler": {
    "name": "solc",
    "version": "0.4.20+commit.3155dd80.Emscripten.clang"
  },
  "schemaVersion": "2.0.1",
  "updatedAt": "2018-11-02T15:44:00.739Z"
}