{
  "contractName": "eventTracker",
  "abi": [
    {
      "constant": true,
      "inputs": [],
      "name": "totalEvents",
      "outputs": [
        {
          "name": "",
          "type": "uint256"
        }
      ],
      "payable": false,
      "stateMutability": "view",
      "type": "function"
    },
    {
      "payable": false,
      "stateMutability": "nonpayable",
      "type": "fallback"
    },
    {
      "anonymous": false,
      "inputs": [
        {
          "indexed": false,
          "name": "_team",
          "type": "string"
        },
        {
          "indexed": false,
          "name": "_eventTitle",
          "type": "string"
        }
      ],
      "name": "eventAdded",
      "type": "event"
    },
    {
      "anonymous": false,
      "inputs": [
        {
          "indexed": false,
          "name": "_team",
          "type": "string"
        },
        {
          "indexed": false,
          "name": "_eventTitle",
          "type": "string"
        }
      ],
      "name": "eventDel",
      "type": "event"
    },
    {
      "constant": false,
      "inputs": [],
      "name": "constructor",
      "outputs": [],
      "payable": false,
      "stateMutability": "nonpayable",
      "type": "function"
    },
    {
      "constant": false,
      "inputs": [
        {
          "name": "_newAdmin",
          "type": "address"
        }
      ],
      "name": "addAdmin",
      "outputs": [
        {
          "name": "success",
          "type": "bool"
        }
      ],
      "payable": false,
      "stateMutability": "nonpayable",
      "type": "function"
    },
    {
      "constant": false,
      "inputs": [
        {
          "name": "_oldAdmin",
          "type": "address"
        }
      ],
      "name": "removeAdmin",
      "outputs": [
        {
          "name": "success",
          "type": "bool"
        }
      ],
      "payable": false,
      "stateMutability": "nonpayable",
      "type": "function"
    },
    {
      "constant": false,
      "inputs": [
        {
          "name": "_team",
          "type": "string"
        },
        {
          "name": "_eventTitle",
          "type": "string"
        },
        {
          "name": "_eventUrl",
          "type": "string"
        },
        {
          "name": "_eventBlock",
          "type": "uint256"
        },
        {
          "name": "_eventDate",
          "type": "uint256"
        }
      ],
      "name": "addEvent",
      "outputs": [
        {
          "name": "success",
          "type": "bool"
        }
      ],
      "payable": false,
      "stateMutability": "nonpayable",
      "type": "function"
    },
    {
      "constant": false,
      "inputs": [
        {
          "name": "_eventNumber",
          "type": "uint256"
        }
      ],
      "name": "delEvent",
      "outputs": [
        {
          "name": "success",
          "type": "bool"
        }
      ],
      "payable": false,
      "stateMutability": "nonpayable",
      "type": "function"
    },
    {
      "constant": true,
      "inputs": [
        {
          "name": "_eventNumber",
          "type": "uint256"
        }
      ],
      "name": "getEvent",
      "outputs": [
        {
          "name": "_team",
          "type": "string"
        },
        {
          "name": "_title",
          "type": "string"
        },
        {
          "name": "_url",
          "type": "string"
        },
        {
          "name": "_block",
          "type": "uint256"
        },
        {
          "name": "_date",
          "type": "uint256"
        }
      ],
      "payable": false,
      "stateMutability": "view",
      "type": "function"
    },
    {
      "constant": false,
      "inputs": [],
      "name": "killshot",
      "outputs": [],
      "payable": false,
      "stateMutability": "nonpayable",
      "type": "function"
    }
  ],
  "bytecode": "0x6060604052336000806101000a81548173ffffffffffffffffffffffffffffffffffffffff021916908373ffffffffffffffffffffffffffffffffffffffff160217905550611234806100536000396000f30060606040526004361061008e576000357c0100000000000000000000000000000000000000000000000000000000900463ffffffff1680631750c30d146100a85780631785f53c146101b55780636d1884e014610206578063704802751461038857806390fa17bb146103d9578063a1d82969146103ee578063ba87068614610403578063dae439601461042c575b341561009957600080fd5b600160001415156100a657fe5b005b34156100b357600080fd5b61019b600480803590602001908201803590602001908080601f0160208091040260200160405190810160405280939291908181526020018383808284378201915050505050509190803590602001908201803590602001908080601f0160208091040260200160405190810160405280939291908181526020018383808284378201915050505050509190803590602001908201803590602001908080601f01602080910402602001604051908101604052809392919081815260200183838082843782019150505050505091908035906020019091908035906020019091905050610467565b604051808215151515815260200191505060405180910390f35b34156101c057600080fd5b6101ec600480803573ffffffffffffffffffffffffffffffffffffffff169060200190919050506106fc565b604051808215151515815260200191505060405180910390f35b341561021157600080fd5b61022760048080359060200190919050506108eb565b60405180806020018060200180602001868152602001858152602001848103845289818151815260200191508051906020019080838360005b8381101561027b578082015181840152602081019050610260565b50505050905090810190601f1680156102a85780820380516001836020036101000a031916815260200191505b50848103835288818151815260200191508051906020019080838360005b838110156102e15780820151818401526020810190506102c6565b50505050905090810190601f16801561030e5780820380516001836020036101000a031916815260200191505b50848103825287818151815260200191508051906020019080838360005b8381101561034757808201518184015260208101905061032c565b50505050905090810190601f1680156103745780820380516001836020036101000a031916815260200191505b509850505050505050505060405180910390f35b341561039357600080fd5b6103bf600480803573ffffffffffffffffffffffffffffffffffffffff16906020019091905050610b69565b604051808215151515815260200191505060405180910390f35b34156103e457600080fd5b6103ec610cc8565b005b34156103f957600080fd5b610401610d35565b005b341561040e57600080fd5b610416610dca565b6040518082815260200191505060405180910390f35b341561043757600080fd5b61044d6004808035906020019091905050610dd0565b604051808215151515815260200191505060405180910390f35b60008060028054806020026020016040519081016040528092919081815260200182805480156104ec57602002820191906000526020600020905b8160009054906101000a900473ffffffffffffffffffffffffffffffffffffffff1673ffffffffffffffffffffffffffffffffffffffff16815260200190600101908083116104a2575b505050505060008090505b81518110156106f0573373ffffffffffffffffffffffffffffffffffffffff16828281518110151561052557fe5b9060200190602002015173ffffffffffffffffffffffffffffffffffffffff1614156106e357600360006001805401815260200190815260200160002092508883600001908051906020019061057c9291906110c6565b50878360010190805190602001906105959291906110c6565b50868360020190805190602001906105ae9291906110c6565b5085836003018190555084836004018190555042836005018190555060018054016001819055507fd213ad3ee8bc49ffb25994b6856a5aa4421ef0de4c5481f2df975e843ad25d228989604051808060200180602001838103835285818151815260200191508051906020019080838360005b8381101561063c578082015181840152602081019050610621565b50505050905090810190601f1680156106695780820380516001836020036101000a031916815260200191505b50838103825284818151815260200191508051906020019080838360005b838110156106a2578082015181840152602081019050610687565b50505050905090810190601f1680156106cf5780820380516001836020036101000a031916815260200191505b5094505050505060405180910390a1600193505b80806001019150506104f7565b50505095945050505050565b600080600280548060200260200160405190810160405280929190818152602001828054801561078157602002820191906000526020600020905b8160009054906101000a900473ffffffffffffffffffffffffffffffffffffffff1673ffffffffffffffffffffffffffffffffffffffff1681526020019060010190808311610737575b505050505060008090505b81518110156108e3573373ffffffffffffffffffffffffffffffffffffffff1682828151811015156107ba57fe5b9060200190602002015173ffffffffffffffffffffffffffffffffffffffff1614156108d657600092505b6002805490508310156108d0578473ffffffffffffffffffffffffffffffffffffffff1660028481548110151561081857fe5b906000526020600020900160009054906101000a900473ffffffffffffffffffffffffffffffffffffffff1673ffffffffffffffffffffffffffffffffffffffff1614156108c357600060028481548110151561087157fe5b906000526020600020900160006101000a81548173ffffffffffffffffffffffffffffffffffffffff021916908373ffffffffffffffffffffffffffffffffffffffff160217905550600193506108d5565b82806001019350506107e5565b600093505b5b808060010191505061078c565b505050919050565b6108f3611146565b6108fb611146565b610903611146565b60008061090e61115a565b6003600088815260200190815260200160002060c06040519081016040529081600082018054600181600116156101000203166002900480601f0160208091040260200160405190810160405280929190818152602001828054600181600116156101000203166002900480156109c65780601f1061099b576101008083540402835291602001916109c6565b820191906000526020600020905b8154815290600101906020018083116109a957829003601f168201915b50505050508152602001600182018054600181600116156101000203166002900480601f016020809104026020016040519081016040528092919081815260200182805460018160011615610100020316600290048015610a685780601f10610a3d57610100808354040283529160200191610a68565b820191906000526020600020905b815481529060010190602001808311610a4b57829003601f168201915b50505050508152602001600282018054600181600116156101000203166002900480601f016020809104026020016040519081016040528092919081815260200182805460018160011615610100020316600290048015610b0a5780601f10610adf57610100808354040283529160200191610b0a565b820191906000526020600020905b815481529060010190602001808311610aed57829003601f168201915b505050505081526020016003820154815260200160048201548152602001600582015481525050905080600001518160200151826040015183606001518460800151849450839350829250955095509550955095505091939590929450565b60006002805480602002602001604051908101604052809291908181526020018280548015610bed57602002820191906000526020600020905b8160009054906101000a900473ffffffffffffffffffffffffffffffffffffffff1673ffffffffffffffffffffffffffffffffffffffff1681526020019060010190808311610ba3575b505050505060008090505b8151811015610cc1573373ffffffffffffffffffffffffffffffffffffffff168282815181101515610c2657fe5b9060200190602002015173ffffffffffffffffffffffffffffffffffffffff161415610cb45760028054806001018281610c6091906111a3565b9160005260206000209001600086909190916101000a81548173ffffffffffffffffffffffffffffffffffffffff021916908373ffffffffffffffffffffffffffffffffffffffff16021790555050600192505b8080600101915050610bf8565b5050919050565b600060018190555060028054806001018281610ce491906111a3565b9160005260206000209001600033909190916101000a81548173ffffffffffffffffffffffffffffffffffffffff021916908373ffffffffffffffffffffffffffffffffffffffff16021790555050565b6000809054906101000a900473ffffffffffffffffffffffffffffffffffffffff1673ffffffffffffffffffffffffffffffffffffffff163373ffffffffffffffffffffffffffffffffffffffff16141515610d9057600080fd5b6000809054906101000a900473ffffffffffffffffffffffffffffffffffffffff1673ffffffffffffffffffffffffffffffffffffffff16ff5b60015481565b6000806002805480602002602001604051908101604052809291908181526020018280548015610e5557602002820191906000526020600020905b8160009054906101000a900473ffffffffffffffffffffffffffffffffffffffff1673ffffffffffffffffffffffffffffffffffffffff1681526020019060010190808311610e0b575b505050505060008090505b81518110156110be573373ffffffffffffffffffffffffffffffffffffffff168282815181101515610e8e57fe5b9060200190602002015173ffffffffffffffffffffffffffffffffffffffff1614156110b1576003600086815260200190815260200160002092507fd213ad3ee8bc49ffb25994b6856a5aa4421ef0de4c5481f2df975e843ad25d228360000184600101604051808060200180602001838103835285818154600181600116156101000203166002900481526020019150805460018160011615610100020316600290048015610f7f5780601f10610f5457610100808354040283529160200191610f7f565b820191906000526020600020905b815481529060010190602001808311610f6257829003601f168201915b50508381038252848181546001816001161561010002031660029004815260200191508054600181600116156101000203166002900480156110025780601f10610fd757610100808354040283529160200191611002565b820191906000526020600020905b815481529060010190602001808311610fe557829003601f168201915b505094505050505060405180910390a1602060405190810160405280600081525083600001908051906020019061103a9291906110c6565b5060206040519081016040528060008152508360010190805190602001906110639291906110c6565b50602060405190810160405280600081525083600201908051906020019061108c9291906110c6565b5060008360030181905550600083600401819055506001805403600181905550600193505b8080600101915050610e60565b505050919050565b828054600181600116156101000203166002900490600052602060002090601f016020900481019282601f1061110757805160ff1916838001178555611135565b82800160010185558215611135579182015b82811115611134578251825591602001919060010190611119565b5b50905061114291906111cf565b5090565b602060405190810160405280600081525090565b60c06040519081016040528061116e6111f4565b815260200161117b6111f4565b81526020016111886111f4565b81526020016000815260200160008152602001600081525090565b8154818355818115116111ca578183600052602060002091820191016111c991906111cf565b5b505050565b6111f191905b808211156111ed5760008160009055506001016111d5565b5090565b90565b6020604051908101604052806000815250905600a165627a7a72305820c69725980fcebc075e7a83af3af88a19666a7f4dc2abd0677bc9854e90bc454a0029",
  "source": "pragma solidity ^0.4.19;\r\n\r\ncontract owned{\r\n  address owner;\r\n  function owned () public {owner = msg.sender;}\r\n  modifier onlyOwner {\r\n          require(msg.sender == owner);\r\n          _;\r\n          }\r\n\r\n  modifier onlyAdmin(address[] admins) {\r\n        for(uint i = 0; i < admins.length; i++ ){\r\n            if(admins[i] == msg.sender){\r\n                _;\r\n            }\r\n        }\r\n}\r\n\r\n\r\n}\r\n\r\ncontract eventTracker is owned{\r\n\r\n////////////////\r\n//Global VARS//////////////////////////////////////////////////////////////////////////\r\n//////////////\r\n\r\n/* int */\r\n\r\n    uint public totalEvents;\r\n    address[] admins;\r\n\r\n    struct eventInfo {\r\n        string team;\r\n        string eventTitle;\r\n        string eventUrl;\r\n        uint eventBlock;\r\n        uint eventDate;\r\n        uint dateAdded;\r\n    }\r\n\r\n///////////\r\n//MAPPING/////////////////////////////////////////////////////////////////////////////\r\n///////////\r\n\r\n    mapping (uint=>eventInfo) eventLog;\r\n///////////\r\n//EVENTS////////////////////////////////////////////////////////////////////////////\r\n//////////\r\n\r\n    event eventAdded(string _team, string _eventTitle);\r\n    event eventDel(string _team, string _eventTitle);\r\n\r\n/////////////\r\n//MODIFIERS////////////////////////////////////////////////////////////////////\r\n////////////\r\n\r\n\r\n//////////////\r\n//Operations////////////////////////////////////////////////////////////////////////\r\n//////////////\r\n\r\n/* init */\r\nfunction constructor() public {\r\n    totalEvents = 0;\r\n    admins.push(msg.sender);\r\n}\r\n\r\n/* public */\r\nfunction () public {\r\n    assert(0 == 1);\r\n}\r\n\r\n\r\n/* only admins */\r\n\r\nfunction addAdmin(address _newAdmin) public onlyAdmin(admins) returns (bool success){\r\n    admins.push(_newAdmin);\r\n    return true;\r\n}\r\n\r\nfunction removeAdmin(address _oldAdmin) public onlyAdmin(admins) returns (bool success){\r\n    for(uint i=0; i < admins.length; i++){\r\n       if(admins[i] == _oldAdmin){\r\n           admins[i] = 0x0;\r\n           return true;\r\n       }\r\n    }\r\n    return false;\r\n}\r\n\r\n\r\nfunction addEvent(string _team, string _eventTitle, string _eventUrl, uint _eventBlock,uint _eventDate) public onlyAdmin(admins) returns (bool success){\r\n    eventInfo storage EI = eventLog[totalEvents+1];\r\n    EI.team = _team;\r\n    EI.eventTitle = _eventTitle;\r\n    EI.eventUrl = _eventUrl;\r\n    EI.eventBlock = _eventBlock;\r\n    EI.eventDate = _eventDate;\r\n    EI.dateAdded = now;\r\n    totalEvents = totalEvents + 1;\r\n    eventAdded( _team, _eventTitle);\r\n    return true;\r\n}\r\n\r\nfunction delEvent(uint _eventNumber) public onlyAdmin(admins) returns (bool success){\r\n    eventInfo storage EI = eventLog[_eventNumber];\r\n    eventAdded( EI.team, EI.eventTitle);\r\n    EI.team = \"\";\r\n    EI.eventTitle = \"\";\r\n    EI.eventUrl = \"\";\r\n    EI.eventBlock = 0;\r\n    EI.eventDate = 0;\r\n    totalEvents = totalEvents - 1;\r\n    return true;\r\n}\r\n\r\n\r\n////////////\r\n//OUTPUTS///////////////////////////////////////////////////////////////////////\r\n//////////\r\n\r\n/* public */\r\n\r\nfunction getEvent(uint _eventNumber) public view returns (string _team, string _title, string _url, uint _block, uint _date){\r\n    eventInfo memory EI = eventLog[_eventNumber];\r\n    return (EI.team, EI.eventTitle, EI.eventUrl, EI.eventBlock, EI.eventDate);\r\n}\r\n\r\n////////////\r\n//SAFETY ////////////////////////////////////////////////////////////////////\r\n//////////\r\n//safety switches consider removing for production\r\n//clean up after contract is no longer needed\r\n\r\nfunction killshot() onlyOwner public {selfdestruct(owner);}\r\n}\r\n\r\n\r\n/////////////////////////////////////////////////////////////////////////////\r\n// 88888b   d888b  88b  88 8 888888         _.-----._\r\n// 88   88 88   88 888b 88 P   88   \\)|)_ ,'         `. _))|)\r\n// 88   88 88   88 88`8b88     88    );-'/             \\`-:(\r\n// 88   88 88   88 88 `888     88   //  :               :  \\\\   .\r\n// 88888P   T888P  88  `88     88  //_,'; ,.         ,. |___\\\\\r\n//    .           __,...,--.       `---':(  `-.___.-'  );----'\r\n//              ,' :    |   \\            \\`. `'-'-'' ,'/\r\n//             :   |    ;   ::            `.`-.,-.-.','\r\n//     |    ,-.|   :  _//`. ;|              ``---\\` :\r\n//   -(o)- (   \\ .- \\  `._// |    *               `.'       *\r\n//     |   |\\   :   : _ |.-  :              .        .\r\n//     .   :\\: -:  _|\\_||  .-(    _..----..\r\n//         :_:  _\\\\_`.--'  _  \\,-'      __ \\\r\n//         .` \\\\_,)--'/ .'    (      ..'--`'          ,-.\r\n//         |.- `-'.-               ,'                (///)\r\n//         :  ,'     .            ;             *     `-'\r\n//   *     :         :           /\r\n//          \\      ,'         _,'   88888b   888    88b  88 88  d888b  88\r\n//           `._       `-  ,-'      88   88 88 88   888b 88 88 88   `  88\r\n//            : `--..     :        *88888P 88   88  88`8b88 88 88      88\r\n//        .   |           |         88    d8888888b 88 `888 88 88   ,  `\"\t.\r\n//            |           |         88    88     8b 88  `88 88  T888P  88\r\n/////////////////////////////////////////////////////////////////////////\r\n",
  "sourcePath": "C:\\Users\\cody.burns\\Documents\\github\\ETC-public-Works\\contracts\\contracts\\eventTracker.sol",
  "compiler": {
    "name": "solc",
    "version": "0.4.19+commit.c4cbbb05.Emscripten.clang"
  },
  "schemaVersion": "2.0.0",
  "updatedAt": "2018-04-30T21:58:49.147Z"
}