{
  "contractName": "eventTracker",
  "abi": [
    {
      "constant": true,
      "inputs": [],
      "name": "totalEvents",
      "outputs": [
        {
          "name": "",
          "type": "uint256"
        }
      ],
      "payable": false,
      "stateMutability": "view",
      "type": "function"
    },
    {
      "inputs": [],
      "payable": false,
      "stateMutability": "nonpayable",
      "type": "constructor"
    },
    {
      "payable": false,
      "stateMutability": "nonpayable",
      "type": "fallback"
    },
    {
      "anonymous": false,
      "inputs": [
        {
          "indexed": false,
          "name": "_team",
          "type": "string"
        },
        {
          "indexed": false,
          "name": "_eventTitle",
          "type": "string"
        }
      ],
      "name": "eventAdded",
      "type": "event"
    },
    {
      "anonymous": false,
      "inputs": [
        {
          "indexed": false,
          "name": "_team",
          "type": "string"
        },
        {
          "indexed": false,
          "name": "_eventTitle",
          "type": "string"
        }
      ],
      "name": "eventDel",
      "type": "event"
    },
    {
      "constant": false,
      "inputs": [
        {
          "name": "_newAdmin",
          "type": "address"
        }
      ],
      "name": "addAdmin",
      "outputs": [
        {
          "name": "success",
          "type": "bool"
        }
      ],
      "payable": false,
      "stateMutability": "nonpayable",
      "type": "function"
    },
    {
      "constant": false,
      "inputs": [
        {
          "name": "_oldAdmin",
          "type": "address"
        }
      ],
      "name": "removeAdmin",
      "outputs": [
        {
          "name": "success",
          "type": "bool"
        }
      ],
      "payable": false,
      "stateMutability": "nonpayable",
      "type": "function"
    },
    {
      "constant": false,
      "inputs": [
        {
          "name": "_team",
          "type": "string"
        },
        {
          "name": "_eventTitle",
          "type": "string"
        },
        {
          "name": "_eventUrl",
          "type": "string"
        },
        {
          "name": "_eventBlock",
          "type": "uint256"
        },
        {
          "name": "_eventDate",
          "type": "string"
        }
      ],
      "name": "addEvent",
      "outputs": [
        {
          "name": "success",
          "type": "bool"
        }
      ],
      "payable": false,
      "stateMutability": "nonpayable",
      "type": "function"
    },
    {
      "constant": false,
      "inputs": [
        {
          "name": "_eventNumber",
          "type": "uint256"
        }
      ],
      "name": "delEvent",
      "outputs": [
        {
          "name": "success",
          "type": "bool"
        }
      ],
      "payable": false,
      "stateMutability": "nonpayable",
      "type": "function"
    },
    {
      "constant": true,
      "inputs": [
        {
          "name": "_eventNumber",
          "type": "uint256"
        }
      ],
      "name": "getEvent",
      "outputs": [
        {
          "name": "_team",
          "type": "string"
        },
        {
          "name": "_title",
          "type": "string"
        },
        {
          "name": "_url",
          "type": "string"
        },
        {
          "name": "_block",
          "type": "uint256"
        },
        {
          "name": "_date",
          "type": "string"
        }
      ],
      "payable": false,
      "stateMutability": "view",
      "type": "function"
    },
    {
      "constant": false,
      "inputs": [],
      "name": "killshot",
      "outputs": [],
      "payable": false,
      "stateMutability": "nonpayable",
      "type": "function"
    }
  ],
  "bytecode": "0x608060405234801561001057600080fd5b50336000806101000a81548173ffffffffffffffffffffffffffffffffffffffff021916908373ffffffffffffffffffffffffffffffffffffffff16021790555060006001819055506001600360003373ffffffffffffffffffffffffffffffffffffffff1673ffffffffffffffffffffffffffffffffffffffff16815260200190815260200160002060006101000a81548160ff021916908315150217905550610fcd806100c06000396000f300608060405260043610610083576000357c0100000000000000000000000000000000000000000000000000000000900463ffffffff1680631785f53c1461009f5780636d1884e0146100fa57806370480275146102eb578063a1d8296914610346578063a4e8a50d1461035d578063ba870686146104ba578063dae43960146104e5575b34801561008f57600080fd5b506001600014151561009d57fe5b005b3480156100ab57600080fd5b506100e0600480360381019080803573ffffffffffffffffffffffffffffffffffffffff16906020019092919050505061052a565b604051808215151515815260200191505060405180910390f35b34801561010657600080fd5b50610125600480360381019080803590602001909291905050506105e8565b604051808060200180602001806020018681526020018060200185810385528a818151815260200191508051906020019080838360005b8381101561017757808201518184015260208101905061015c565b50505050905090810190601f1680156101a45780820380516001836020036101000a031916815260200191505b50858103845289818151815260200191508051906020019080838360005b838110156101dd5780820151818401526020810190506101c2565b50505050905090810190601f16801561020a5780820380516001836020036101000a031916815260200191505b50858103835288818151815260200191508051906020019080838360005b83811015610243578082015181840152602081019050610228565b50505050905090810190601f1680156102705780820380516001836020036101000a031916815260200191505b50858103825286818151815260200191508051906020019080838360005b838110156102a957808201518184015260208101905061028e565b50505050905090810190601f1680156102d65780820380516001836020036101000a031916815260200191505b50995050505050505050505060405180910390f35b3480156102f757600080fd5b5061032c600480360381019080803573ffffffffffffffffffffffffffffffffffffffff1690602001909291905050506108ef565b604051808215151515815260200191505060405180910390f35b34801561035257600080fd5b5061035b6109ad565b005b34801561036957600080fd5b506104a0600480360381019080803590602001908201803590602001908080601f0160208091040260200160405190810160405280939291908181526020018383808284378201915050505050509192919290803590602001908201803590602001908080601f0160208091040260200160405190810160405280939291908181526020018383808284378201915050505050509192919290803590602001908201803590602001908080601f016020809104026020016040519081016040528093929190818152602001838380828437820191505050505050919291929080359060200190929190803590602001908201803590602001908080601f0160208091040260200160405190810160405280939291908181526020018383808284378201915050505050509192919290505050610a42565b604051808215151515815260200191505060405180910390f35b3480156104c657600080fd5b506104cf610c4e565b6040518082815260200191505060405180910390f35b3480156104f157600080fd5b5061051060048036038101908080359060200190929190505050610c54565b604051808215151515815260200191505060405180910390f35b60008060009054906101000a900473ffffffffffffffffffffffffffffffffffffffff1673ffffffffffffffffffffffffffffffffffffffff163373ffffffffffffffffffffffffffffffffffffffff1614151561058757600080fd5b6000600360008473ffffffffffffffffffffffffffffffffffffffff1673ffffffffffffffffffffffffffffffffffffffff16815260200190815260200160002060006101000a81548160ff02191690831515021790555060019050919050565b6060806060600060606105f9610ec5565b6002600088815260200190815260200160002060c06040519081016040529081600082018054600181600116156101000203166002900480601f0160208091040260200160405190810160405280929190818152602001828054600181600116156101000203166002900480156106b15780601f10610686576101008083540402835291602001916106b1565b820191906000526020600020905b81548152906001019060200180831161069457829003601f168201915b50505050508152602001600182018054600181600116156101000203166002900480601f0160208091040260200160405190810160405280929190818152602001828054600181600116156101000203166002900480156107535780601f1061072857610100808354040283529160200191610753565b820191906000526020600020905b81548152906001019060200180831161073657829003601f168201915b50505050508152602001600282018054600181600116156101000203166002900480601f0160208091040260200160405190810160405280929190818152602001828054600181600116156101000203166002900480156107f55780601f106107ca576101008083540402835291602001916107f5565b820191906000526020600020905b8154815290600101906020018083116107d857829003601f168201915b5050505050815260200160038201548152602001600482018054600181600116156101000203166002900480601f0160208091040260200160405190810160405280929190818152602001828054600181600116156101000203166002900480156108a15780601f10610876576101008083540402835291602001916108a1565b820191906000526020600020905b81548152906001019060200180831161088457829003601f168201915b50505050508152602001600582015481525050905080600001518160200151826040015183606001518460800151849450839350829250809050955095509550955095505091939590929450565b60008060009054906101000a900473ffffffffffffffffffffffffffffffffffffffff1673ffffffffffffffffffffffffffffffffffffffff163373ffffffffffffffffffffffffffffffffffffffff1614151561094c57600080fd5b6001600360008473ffffffffffffffffffffffffffffffffffffffff1673ffffffffffffffffffffffffffffffffffffffff16815260200190815260200160002060006101000a81548160ff02191690831515021790555060019050919050565b6000809054906101000a900473ffffffffffffffffffffffffffffffffffffffff1673ffffffffffffffffffffffffffffffffffffffff163373ffffffffffffffffffffffffffffffffffffffff16141515610a0857600080fd5b6000809054906101000a900473ffffffffffffffffffffffffffffffffffffffff1673ffffffffffffffffffffffffffffffffffffffff16ff5b600080600360003373ffffffffffffffffffffffffffffffffffffffff1673ffffffffffffffffffffffffffffffffffffffff16815260200190815260200160002060009054906101000a900460ff161515610a9d57600080fd5b6002600060018054018152602001908152602001600020905086816000019080519060200190610ace929190610efc565b5085816001019080519060200190610ae7929190610efc565b5084816002019080519060200190610b00929190610efc565b5083816003018190555082816004019080519060200190610b22929190610efc565b5042816005018190555060018054016001819055507fd213ad3ee8bc49ffb25994b6856a5aa4421ef0de4c5481f2df975e843ad25d228787604051808060200180602001838103835285818151815260200191508051906020019080838360005b83811015610b9e578082015181840152602081019050610b83565b50505050905090810190601f168015610bcb5780820380516001836020036101000a031916815260200191505b50838103825284818151815260200191508051906020019080838360005b83811015610c04578082015181840152602081019050610be9565b50505050905090810190601f168015610c315780820380516001836020036101000a031916815260200191505b5094505050505060405180910390a1600191505095945050505050565b60015481565b600080600360003373ffffffffffffffffffffffffffffffffffffffff1673ffffffffffffffffffffffffffffffffffffffff16815260200190815260200160002060009054906101000a900460ff161515610caf57600080fd5b6002600084815260200190815260200160002090507fd9500ccee115826539f53d506d2ed04f7e536795e563a1a80b72b71aa8046bc48160000182600101604051808060200180602001838103835285818154600181600116156101000203166002900481526020019150805460018160011615610100020316600290048015610d7a5780601f10610d4f57610100808354040283529160200191610d7a565b820191906000526020600020905b815481529060010190602001808311610d5d57829003601f168201915b5050838103825284818154600181600116156101000203166002900481526020019150805460018160011615610100020316600290048015610dfd5780601f10610dd257610100808354040283529160200191610dfd565b820191906000526020600020905b815481529060010190602001808311610de057829003601f168201915b505094505050505060405180910390a16020604051908101604052806000815250816000019080519060200190610e35929190610efc565b506020604051908101604052806000815250816001019080519060200190610e5e929190610efc565b506020604051908101604052806000815250816002019080519060200190610e87929190610efc565b50600081600301819055506020604051908101604052806000815250816004019080519060200190610eba929190610efc565b506001915050919050565b60c0604051908101604052806060815260200160608152602001606081526020016000815260200160608152602001600081525090565b828054600181600116156101000203166002900490600052602060002090601f016020900481019282601f10610f3d57805160ff1916838001178555610f6b565b82800160010185558215610f6b579182015b82811115610f6a578251825591602001919060010190610f4f565b5b509050610f789190610f7c565b5090565b610f9e91905b80821115610f9a576000816000905550600101610f82565b5090565b905600a165627a7a72305820b397ed6f4fa19fffcc3f1b4c375427d2289bcf5ef690848976b2dcc9194fe4d50029",
  "source": "pragma solidity ^0.4.19;\r\n\r\ncontract owned{\r\n  address owner;\r\n  function owned () public {owner = msg.sender;}\r\n  modifier onlyOwner {\r\n          require(msg.sender == owner);\r\n          _;\r\n          }\r\n}\r\n\r\ncontract eventTracker is owned{\r\n\r\n////////////////\r\n//Global VARS//////////////////////////////////////////////////////////////////////////\r\n//////////////\r\n\r\n/* int */\r\n\r\n    uint public totalEvents;\r\n\r\n    struct eventInfo {\r\n        string team;\r\n        string eventTitle;\r\n        string eventUrl;\r\n        uint eventBlock;\r\n        string eventDate;\r\n        uint dateAdded;\r\n    }\r\n\r\n///////////\r\n//MAPPING/////////////////////////////////////////////////////////////////////////////\r\n///////////\r\n\r\n    mapping (uint=>eventInfo) eventLog;\r\n    mapping (address=>bool) admins;\r\n///////////\r\n//EVENTS////////////////////////////////////////////////////////////////////////////\r\n//////////\r\n\r\n    event eventAdded(string _team, string _eventTitle);\r\n    event eventDel(string _team, string _eventTitle);\r\n\r\n/////////////\r\n//MODIFIERS////////////////////////////////////////////////////////////////////\r\n////////////\r\n\r\nmodifier onlyAdmin() {\r\n    require(admins[msg.sender]);\r\n    _;\r\n\r\n\r\n}\r\n\r\n//////////////\r\n//Operations////////////////////////////////////////////////////////////////////////\r\n//////////////\r\n\r\n/* init */\r\nfunction eventTracker() public {\r\n    totalEvents = 0;\r\n    admins[msg.sender] = true;\r\n}\r\n\r\n/* public */\r\nfunction () public {\r\n    assert(0 == 1);\r\n}\r\n\r\n\r\n/* only admins */\r\n\r\nfunction addAdmin(address _newAdmin) public onlyOwner returns (bool success){\r\n    admins[_newAdmin] = true;\r\n    return true;\r\n}\r\n\r\nfunction removeAdmin(address _oldAdmin) public onlyOwner returns (bool success){\r\n    admins[_oldAdmin] = false;\r\n    return true;\r\n}\r\n\r\n\r\nfunction addEvent(string _team, string _eventTitle, string _eventUrl, uint _eventBlock,string _eventDate) public onlyAdmin returns (bool success){\r\n    eventInfo storage EI = eventLog[totalEvents + 1];\r\n    EI.team = _team;\r\n    EI.eventTitle = _eventTitle;\r\n    EI.eventUrl = _eventUrl;\r\n    EI.eventBlock = _eventBlock;\r\n    EI.eventDate = _eventDate;\r\n    EI.dateAdded = now;\r\n    totalEvents = totalEvents + 1;\r\n    eventAdded( _team, _eventTitle);\r\n    return true;\r\n}\r\n\r\nfunction delEvent(uint _eventNumber) public onlyAdmin returns (bool success){\r\n    eventInfo storage EI = eventLog[_eventNumber];\r\n    eventDel( EI.team, EI.eventTitle);\r\n    EI.team = \"\";\r\n    EI.eventTitle = \"\";\r\n    EI.eventUrl = \"\";\r\n    EI.eventBlock = 0;\r\n    EI.eventDate = \"\";\r\n    return true;\r\n}\r\n\r\n\r\n////////////\r\n//OUTPUTS///////////////////////////////////////////////////////////////////////\r\n//////////\r\n\r\n/* public */\r\n\r\nfunction getEvent(uint _eventNumber) public view returns (string _team, string _title, string _url, uint _block, string _date){\r\n    eventInfo memory EI = eventLog[_eventNumber];\r\n    return (EI.team, EI.eventTitle, EI.eventUrl, EI.eventBlock, EI.eventDate);\r\n}\r\n\r\n////////////\r\n//SAFETY ////////////////////////////////////////////////////////////////////\r\n//////////\r\n//safety switches consider removing for production\r\n//clean up after contract is no longer needed\r\n\r\nfunction killshot() onlyOwner public {selfdestruct(owner);}\r\n}\r\n\r\n\r\n/////////////////////////////////////////////////////////////////////////////\r\n// 88888b   d888b  88b  88 8 888888         _.-----._\r\n// 88   88 88   88 888b 88 P   88   \\)|)_ ,'         `. _))|)\r\n// 88   88 88   88 88`8b88     88    );-'/             \\`-:(\r\n// 88   88 88   88 88 `888     88   //  :               :  \\\\   .\r\n// 88888P   T888P  88  `88     88  //_,'; ,.         ,. |___\\\\\r\n//    .           __,...,--.       `---':(  `-.___.-'  );----'\r\n//              ,' :    |   \\            \\`. `'-'-'' ,'/\r\n//             :   |    ;   ::            `.`-.,-.-.','\r\n//     |    ,-.|   :  _//`. ;|              ``---\\` :\r\n//   -(o)- (   \\ .- \\  `._// |    *               `.'       *\r\n//     |   |\\   :   : _ |.-  :              .        .\r\n//     .   :\\: -:  _|\\_||  .-(    _..----..\r\n//         :_:  _\\\\_`.--'  _  \\,-'      __ \\\r\n//         .` \\\\_,)--'/ .'    (      ..'--`'          ,-.\r\n//         |.- `-'.-               ,'                (///)\r\n//         :  ,'     .            ;             *     `-'\r\n//   *     :         :           /\r\n//          \\      ,'         _,'   88888b   888    88b  88 88  d888b  88\r\n//           `._       `-  ,-'      88   88 88 88   888b 88 88 88   `  88\r\n//            : `--..     :        *88888P 88   88  88`8b88 88 88      88\r\n//        .   |           |         88    d8888888b 88 `888 88 88   ,  `\"\t.\r\n//            |           |         88    88     8b 88  `88 88  T888P  88\r\n/////////////////////////////////////////////////////////////////////////\r\n",
  "sourcePath": "C:\\Users\\cody.burns\\Documents\\github\\ETC-public-Works\\contracts\\contracts\\eventTracker.sol",
  "compiler": {
    "name": "solc",
    "version": "0.4.24+commit.e67f0147.Emscripten.clang"
  },
  "schemaVersion": "2.0.1",
  "updatedAt": "2018-10-31T22:10:40.704Z"
}