{
  "contractName": "faucet",
  "abi": [
    {
      "constant": true,
      "inputs": [],
      "name": "nextPayout",
      "outputs": [
        {
          "name": "",
          "type": "uint256"
        }
      ],
      "payable": false,
      "stateMutability": "view",
      "type": "function"
    },
    {
      "constant": true,
      "inputs": [],
      "name": "runningCount",
      "outputs": [
        {
          "name": "",
          "type": "uint256"
        }
      ],
      "payable": false,
      "stateMutability": "view",
      "type": "function"
    },
    {
      "constant": true,
      "inputs": [],
      "name": "dripRate",
      "outputs": [
        {
          "name": "",
          "type": "uint256"
        }
      ],
      "payable": false,
      "stateMutability": "view",
      "type": "function"
    },
    {
      "constant": true,
      "inputs": [],
      "name": "dropValue",
      "outputs": [
        {
          "name": "",
          "type": "uint256"
        }
      ],
      "payable": false,
      "stateMutability": "view",
      "type": "function"
    },
    {
      "constant": true,
      "inputs": [],
      "name": "lastDrip",
      "outputs": [
        {
          "name": "",
          "type": "uint256"
        }
      ],
      "payable": false,
      "stateMutability": "view",
      "type": "function"
    },
    {
      "inputs": [
        {
          "name": "_dropValue",
          "type": "uint256"
        },
        {
          "name": "_dripRate",
          "type": "uint256"
        }
      ],
      "payable": false,
      "stateMutability": "nonpayable",
      "type": "constructor"
    },
    {
      "payable": true,
      "stateMutability": "payable",
      "type": "fallback"
    },
    {
      "anonymous": false,
      "inputs": [
        {
          "indexed": false,
          "name": "rewarded",
          "type": "address"
        },
        {
          "indexed": false,
          "name": "drip",
          "type": "uint256"
        }
      ],
      "name": "Payouts",
      "type": "event"
    },
    {
      "anonymous": false,
      "inputs": [
        {
          "indexed": false,
          "name": "dripset",
          "type": "uint256"
        }
      ],
      "name": "DripSet",
      "type": "event"
    },
    {
      "anonymous": false,
      "inputs": [
        {
          "indexed": false,
          "name": "coolperson",
          "type": "address"
        },
        {
          "indexed": false,
          "name": "paid",
          "type": "uint256"
        }
      ],
      "name": "Donation",
      "type": "event"
    },
    {
      "constant": false,
      "inputs": [
        {
          "name": "_payout",
          "type": "address"
        }
      ],
      "name": "getETC",
      "outputs": [],
      "payable": false,
      "stateMutability": "nonpayable",
      "type": "function"
    },
    {
      "constant": false,
      "inputs": [
        {
          "name": "_dropValue",
          "type": "uint256"
        },
        {
          "name": "_dripRate",
          "type": "uint256"
        }
      ],
      "name": "dripSet",
      "outputs": [],
      "payable": false,
      "stateMutability": "nonpayable",
      "type": "function"
    },
    {
      "constant": false,
      "inputs": [],
      "name": "killshot",
      "outputs": [],
      "payable": false,
      "stateMutability": "nonpayable",
      "type": "function"
    }
  ],
  "bytecode": "0x6060604052341561000f57600080fd5b6040516040806105f183398101604052808051906020019091908051906020019091905050336000806101000a81548173ffffffffffffffffffffffffffffffffffffffff021916908373ffffffffffffffffffffffffffffffffffffffff1602179055508160038190555080600281905550600060048190555043600181905550336000806101000a81548173ffffffffffffffffffffffffffffffffffffffff021916908373ffffffffffffffffffffffffffffffffffffffff160217905550505061050f806100e26000396000f30060606040526004361061008e576000357c0100000000000000000000000000000000000000000000000000000000900463ffffffff16806346d4c370146100fb5780637f55d0d214610134578063851e2e231461015d578063a1d8296914610186578063a53da8e51461019b578063d3261592146101c7578063db820e58146101f0578063eadb825914610219575b7f5d8bc849764969eb1bcc6d0a2f55999d0167c1ccec240a4f39cf664ca9c4148e3334604051808373ffffffffffffffffffffffffffffffffffffffff1673ffffffffffffffffffffffffffffffffffffffff1681526020018281526020019250505060405180910390a1005b341561010657600080fd5b610132600480803573ffffffffffffffffffffffffffffffffffffffff16906020019091905050610242565b005b341561013f57600080fd5b61014761038a565b6040518082815260200191505060405180910390f35b341561016857600080fd5b610170610390565b6040518082815260200191505060405180910390f35b341561019157600080fd5b610199610396565b005b34156101a657600080fd5b6101c5600480803590602001909190803590602001909190505061042b565b005b34156101d257600080fd5b6101da6104d1565b6040518082815260200191505060405180910390f35b34156101fb57600080fd5b6102036104d7565b6040518082815260200191505060405180910390f35b341561022457600080fd5b61022c6104dd565b6040518082815260200191505060405180910390f35b6000809054906101000a900473ffffffffffffffffffffffffffffffffffffffff1673ffffffffffffffffffffffffffffffffffffffff163373ffffffffffffffffffffffffffffffffffffffff1614151561029d57600080fd5b6002546001544303101515156102b257600080fd5b436001819055508073ffffffffffffffffffffffffffffffffffffffff166108fc6003549081150290604051600060405180830381858888f1935050505015156102fb57600080fd5b600354600460008282540192505081905550600254600154016005819055507fbb4052119e77555287b3caafdc674e2142fdaecf2b44c0936a63a0298a436bbe81600354604051808373ffffffffffffffffffffffffffffffffffffffff1673ffffffffffffffffffffffffffffffffffffffff1681526020018281526020019250505060405180910390a150565b60055481565b60045481565b6000809054906101000a900473ffffffffffffffffffffffffffffffffffffffff1673ffffffffffffffffffffffffffffffffffffffff163373ffffffffffffffffffffffffffffffffffffffff161415156103f157600080fd5b6000809054906101000a900473ffffffffffffffffffffffffffffffffffffffff1673ffffffffffffffffffffffffffffffffffffffff16ff5b6000809054906101000a900473ffffffffffffffffffffffffffffffffffffffff1673ffffffffffffffffffffffffffffffffffffffff163373ffffffffffffffffffffffffffffffffffffffff1614151561048657600080fd5b81600381905550806002819055507ffd023492a913e1a9f4391a876d1d2fc9dc92c3bc6db7a0561fae261be1647b876003546040518082815260200191505060405180910390a15050565b60025481565b60035481565b600154815600a165627a7a723058200fedaed0023f4e251dc2564166de96a3431b4b2085dc8abc6f298eb3e02148b30029",
  "source": "// simple faucet\r\n//\r\n// @authors:\r\n// Cody Burns <dontpanic@codywburns.com>\r\n// license: Apache 2.0\r\n// version: 0.2.0\r\npragma solidity ^0.4.19;\r\n\r\n// Intended use:\r\n// Sends a small amount of ether to whomever calls the default function\r\n// Status: functional\r\n// still needs:\r\n// submit pr and issues to https://github.com/realcodywburns/tank-Farm\r\n\r\ncontract owned{\r\n  function owned () public {owner = msg.sender;}\r\n  address owner;\r\n  modifier onlyOwner {\r\n          require(msg.sender == owner);\r\n          _;\r\n          }\r\n  }\r\n\r\ncontract faucet is owned{\r\n\r\n////////////////\r\n//Global VARS//////////////////////////////////////////////////////////////////////////\r\n//////////////\r\n\r\n/* int */\r\n\r\n    uint public lastDrip;\r\n    uint public dripRate;\r\n    uint public dropValue;\r\n    uint public runningCount;\r\n    uint public nextPayout;\r\n\r\n///////////\r\n//MAPPING/////////////////////////////////////////////////////////////////////////////\r\n///////////\r\n\r\n\r\n///////////\r\n//EVENTS////////////////////////////////////////////////////////////////////////////\r\n//////////\r\n\r\n    event Payouts(address rewarded, uint drip);\r\n    event DripSet(uint dripset);\r\n    event Donation(address coolperson, uint paid);\r\n\r\n/////////////\r\n//MODIFIERS////////////////////////////////////////////////////////////////////\r\n////////////\r\n\r\n//////////////\r\n//Operations////////////////////////////////////////////////////////////////////////\r\n//////////////\r\n/* init */\r\nfunction faucet(uint _dropValue, uint _dripRate) public {\r\n    dropValue = _dropValue;\r\n    dripRate = _dripRate;\r\n    runningCount = 0;\r\n    lastDrip = block.number;\r\n    owner = msg.sender;\r\n}\r\n\r\n/* public */\r\nfunction () public payable{\r\n    Donation(msg.sender, msg.value);\r\n}\r\n\r\nfunction getETC(address _payout) public onlyOwner {\r\n    require(block.number-lastDrip >= dripRate);\r\n    lastDrip = block.number; // prevent any more withdrawls\r\n    _payout.transfer(dropValue);\r\n    runningCount += dropValue;\r\n    nextPayout = lastDrip + dripRate;\r\n    Payouts(_payout, dropValue);\r\n    }\r\n\r\n/* onlyOwner */\r\n\r\nfunction dripSet (uint _dropValue, uint _dripRate) public onlyOwner{\r\n    dropValue = _dropValue;\r\n    dripRate = _dripRate;\r\n    DripSet(dropValue);\r\n}\r\n////////////\r\n//OUTPUTS///////////////////////////////////////////////////////////////////////\r\n//////////\r\n\r\n/* public */\r\n\r\n////////////\r\n//SAFETY ////////////////////////////////////////////////////////////////////\r\n//////////\r\n//safety switches consider removing for production\r\n//clean up after contract is no longer needed\r\n\r\nfunction killshot() onlyOwner public {selfdestruct(owner);}\r\n}\r\n\r\n\r\n/////////////////////////////////////////////////////////////////////////////\r\n// 88888b   d888b  88b  88 8 888888         _.-----._\r\n// 88   88 88   88 888b 88 P   88   \\)|)_ ,'         `. _))|)\r\n// 88   88 88   88 88`8b88     88    );-'/             \\`-:(\r\n// 88   88 88   88 88 `888     88   //  :               :  \\\\   .\r\n// 88888P   T888P  88  `88     88  //_,'; ,.         ,. |___\\\\\r\n//    .           __,...,--.       `---':(  `-.___.-'  );----'\r\n//              ,' :    |   \\            \\`. `'-'-'' ,'/\r\n//             :   |    ;   ::            `.`-.,-.-.','\r\n//     |    ,-.|   :  _//`. ;|              ``---\\` :\r\n//   -(o)- (   \\ .- \\  `._// |    *               `.'       *\r\n//     |   |\\   :   : _ |.-  :              .        .\r\n//     .   :\\: -:  _|\\_||  .-(    _..----..\r\n//         :_:  _\\\\_`.--'  _  \\,-'      __ \\\r\n//         .` \\\\_,)--'/ .'    (      ..'--`'          ,-.\r\n//         |.- `-'.-               ,'                (///)\r\n//         :  ,'     .            ;             *     `-'\r\n//   *     :         :           /\r\n//          \\      ,'         _,'   88888b   888    88b  88 88  d888b  88\r\n//           `._       `-  ,-'      88   88 88 88   888b 88 88 88   `  88\r\n//            : `--..     :        *88888P 88   88  88`8b88 88 88      88\r\n//        .   |           |         88    d8888888b 88 `888 88 88   ,  `\"\t.\r\n//            |           |         88    88     8b 88  `88 88  T888P  88\r\n/////////////////////////////////////////////////////////////////////////\r\n",
  "sourcePath": "C:\\Users\\cody.burns\\Documents\\github\\ETC-public-Works\\contracts\\contracts\\faucet.sol",
  "compiler": {
    "name": "solc",
    "version": "0.4.20+commit.3155dd80.Emscripten.clang"
  },
  "schemaVersion": "2.0.1",
  "updatedAt": "2018-11-02T15:44:00.735Z"
}