{
  "contractName": "faucet",
  "abi": [
    {
      "constant": true,
      "inputs": [],
      "name": "nextPayout",
      "outputs": [
        {
          "name": "",
          "type": "uint256"
        }
      ],
      "payable": false,
      "stateMutability": "view",
      "type": "function"
    },
    {
      "constant": true,
      "inputs": [],
      "name": "runningCount",
      "outputs": [
        {
          "name": "",
          "type": "uint256"
        }
      ],
      "payable": false,
      "stateMutability": "view",
      "type": "function"
    },
    {
      "constant": true,
      "inputs": [],
      "name": "dripRate",
      "outputs": [
        {
          "name": "",
          "type": "uint256"
        }
      ],
      "payable": false,
      "stateMutability": "view",
      "type": "function"
    },
    {
      "constant": true,
      "inputs": [],
      "name": "dropValue",
      "outputs": [
        {
          "name": "",
          "type": "uint256"
        }
      ],
      "payable": false,
      "stateMutability": "view",
      "type": "function"
    },
    {
      "constant": true,
      "inputs": [],
      "name": "lastDrip",
      "outputs": [
        {
          "name": "",
          "type": "uint256"
        }
      ],
      "payable": false,
      "stateMutability": "view",
      "type": "function"
    },
    {
      "inputs": [
        {
          "name": "_dropValue",
          "type": "uint256"
        },
        {
          "name": "_dripRate",
          "type": "uint256"
        }
      ],
      "payable": false,
      "stateMutability": "nonpayable",
      "type": "constructor"
    },
    {
      "payable": true,
      "stateMutability": "payable",
      "type": "fallback"
    },
    {
      "anonymous": false,
      "inputs": [
        {
          "indexed": false,
          "name": "rewarded",
          "type": "address"
        },
        {
          "indexed": false,
          "name": "drip",
          "type": "uint256"
        }
      ],
      "name": "Payouts",
      "type": "event"
    },
    {
      "anonymous": false,
      "inputs": [
        {
          "indexed": false,
          "name": "dripset",
          "type": "uint256"
        }
      ],
      "name": "DripSet",
      "type": "event"
    },
    {
      "anonymous": false,
      "inputs": [
        {
          "indexed": false,
          "name": "coolperson",
          "type": "address"
        },
        {
          "indexed": false,
          "name": "paid",
          "type": "uint256"
        }
      ],
      "name": "Donation",
      "type": "event"
    },
    {
      "constant": false,
      "inputs": [
        {
          "name": "_payout",
          "type": "address"
        }
      ],
      "name": "getETC",
      "outputs": [],
      "payable": false,
      "stateMutability": "nonpayable",
      "type": "function"
    },
    {
      "constant": false,
      "inputs": [
        {
          "name": "_dropValue",
          "type": "uint256"
        },
        {
          "name": "_dripRate",
          "type": "uint256"
        }
      ],
      "name": "dripSet",
      "outputs": [],
      "payable": false,
      "stateMutability": "nonpayable",
      "type": "function"
    },
    {
      "constant": false,
      "inputs": [],
      "name": "killshot",
      "outputs": [],
      "payable": false,
      "stateMutability": "nonpayable",
      "type": "function"
    }
  ],
  "bytecode": "0x608060405234801561001057600080fd5b506040516040806106228339810180604052810190808051906020019092919080519060200190929190505050336000806101000a81548173ffffffffffffffffffffffffffffffffffffffff021916908373ffffffffffffffffffffffffffffffffffffffff1602179055508160038190555080600281905550600060048190555043600181905550336000806101000a81548173ffffffffffffffffffffffffffffffffffffffff021916908373ffffffffffffffffffffffffffffffffffffffff1602179055505050610537806100eb6000396000f30060806040526004361061008e576000357c0100000000000000000000000000000000000000000000000000000000900463ffffffff16806346d4c370146100fb5780637f55d0d21461013e578063851e2e2314610169578063a1d8296914610194578063a53da8e5146101ab578063d3261592146101e2578063db820e581461020d578063eadb825914610238575b7f5d8bc849764969eb1bcc6d0a2f55999d0167c1ccec240a4f39cf664ca9c4148e3334604051808373ffffffffffffffffffffffffffffffffffffffff1673ffffffffffffffffffffffffffffffffffffffff1681526020018281526020019250505060405180910390a1005b34801561010757600080fd5b5061013c600480360381019080803573ffffffffffffffffffffffffffffffffffffffff169060200190929190505050610263565b005b34801561014a57600080fd5b506101536103b2565b6040518082815260200191505060405180910390f35b34801561017557600080fd5b5061017e6103b8565b6040518082815260200191505060405180910390f35b3480156101a057600080fd5b506101a96103be565b005b3480156101b757600080fd5b506101e06004803603810190808035906020019092919080359060200190929190505050610453565b005b3480156101ee57600080fd5b506101f76104f9565b6040518082815260200191505060405180910390f35b34801561021957600080fd5b506102226104ff565b6040518082815260200191505060405180910390f35b34801561024457600080fd5b5061024d610505565b6040518082815260200191505060405180910390f35b6000809054906101000a900473ffffffffffffffffffffffffffffffffffffffff1673ffffffffffffffffffffffffffffffffffffffff163373ffffffffffffffffffffffffffffffffffffffff161415156102be57600080fd5b6002546001544303101515156102d357600080fd5b436001819055508073ffffffffffffffffffffffffffffffffffffffff166108fc6003549081150290604051600060405180830381858888f19350505050158015610322573d6000803e3d6000fd5b50600354600460008282540192505081905550600254600154016005819055507fbb4052119e77555287b3caafdc674e2142fdaecf2b44c0936a63a0298a436bbe81600354604051808373ffffffffffffffffffffffffffffffffffffffff1673ffffffffffffffffffffffffffffffffffffffff1681526020018281526020019250505060405180910390a150565b60055481565b60045481565b6000809054906101000a900473ffffffffffffffffffffffffffffffffffffffff1673ffffffffffffffffffffffffffffffffffffffff163373ffffffffffffffffffffffffffffffffffffffff1614151561041957600080fd5b6000809054906101000a900473ffffffffffffffffffffffffffffffffffffffff1673ffffffffffffffffffffffffffffffffffffffff16ff5b6000809054906101000a900473ffffffffffffffffffffffffffffffffffffffff1673ffffffffffffffffffffffffffffffffffffffff163373ffffffffffffffffffffffffffffffffffffffff161415156104ae57600080fd5b81600381905550806002819055507ffd023492a913e1a9f4391a876d1d2fc9dc92c3bc6db7a0561fae261be1647b876003546040518082815260200191505060405180910390a15050565b60025481565b60035481565b600154815600a165627a7a72305820b0acada3685c83530bf401ec5cf9c82eac5f423383221793794cebf3c585de250029",
  "source": "// simple faucet\r\n//\r\n// @authors:\r\n// Cody Burns <dontpanic@codywburns.com>\r\n// license: Apache 2.0\r\n// version: 0.2.0\r\npragma solidity ^0.4.19;\r\n\r\n// Intended use:\r\n// Sends a small amount of ether to whomever calls the default function\r\n// Status: functional\r\n// still needs:\r\n// submit pr and issues to https://github.com/realcodywburns/tank-Farm\r\n\r\ncontract owned{\r\n  function owned () public {owner = msg.sender;}\r\n  address owner;\r\n  modifier onlyOwner {\r\n          require(msg.sender == owner);\r\n          _;\r\n          }\r\n  }\r\n\r\ncontract faucet is owned{\r\n\r\n////////////////\r\n//Global VARS//////////////////////////////////////////////////////////////////////////\r\n//////////////\r\n\r\n/* int */\r\n\r\n    uint public lastDrip;\r\n    uint public dripRate;\r\n    uint public dropValue;\r\n    uint public runningCount;\r\n    uint public nextPayout;\r\n\r\n///////////\r\n//MAPPING/////////////////////////////////////////////////////////////////////////////\r\n///////////\r\n\r\n\r\n///////////\r\n//EVENTS////////////////////////////////////////////////////////////////////////////\r\n//////////\r\n\r\n    event Payouts(address rewarded, uint drip);\r\n    event DripSet(uint dripset);\r\n    event Donation(address coolperson, uint paid);\r\n\r\n/////////////\r\n//MODIFIERS////////////////////////////////////////////////////////////////////\r\n////////////\r\n\r\n//////////////\r\n//Operations////////////////////////////////////////////////////////////////////////\r\n//////////////\r\n/* init */\r\nfunction faucet(uint _dropValue, uint _dripRate) public {\r\n    dropValue = _dropValue;\r\n    dripRate = _dripRate;\r\n    runningCount = 0;\r\n    lastDrip = block.number;\r\n    owner = msg.sender;\r\n}\r\n\r\n/* public */\r\nfunction () public payable{\r\n    Donation(msg.sender, msg.value);\r\n}\r\n\r\nfunction getETC(address _payout) public onlyOwner {\r\n    require(block.number-lastDrip >= dripRate);\r\n    lastDrip = block.number; // prevent any more withdrawls\r\n    _payout.transfer(dropValue);\r\n    runningCount += dropValue;\r\n    nextPayout = lastDrip + dripRate;\r\n    Payouts(_payout, dropValue);\r\n    }\r\n\r\n/* onlyOwner */\r\n\r\nfunction dripSet (uint _dropValue, uint _dripRate) public onlyOwner{\r\n    dropValue = _dropValue;\r\n    dripRate = _dripRate;\r\n    DripSet(dropValue);\r\n}\r\n////////////\r\n//OUTPUTS///////////////////////////////////////////////////////////////////////\r\n//////////\r\n\r\n/* public */\r\n\r\n////////////\r\n//SAFETY ////////////////////////////////////////////////////////////////////\r\n//////////\r\n//safety switches consider removing for production\r\n//clean up after contract is no longer needed\r\n\r\nfunction killshot() onlyOwner public {selfdestruct(owner);}\r\n}\r\n\r\n\r\n/////////////////////////////////////////////////////////////////////////////\r\n// 88888b   d888b  88b  88 8 888888         _.-----._\r\n// 88   88 88   88 888b 88 P   88   \\)|)_ ,'         `. _))|)\r\n// 88   88 88   88 88`8b88     88    );-'/             \\`-:(\r\n// 88   88 88   88 88 `888     88   //  :               :  \\\\   .\r\n// 88888P   T888P  88  `88     88  //_,'; ,.         ,. |___\\\\\r\n//    .           __,...,--.       `---':(  `-.___.-'  );----'\r\n//              ,' :    |   \\            \\`. `'-'-'' ,'/\r\n//             :   |    ;   ::            `.`-.,-.-.','\r\n//     |    ,-.|   :  _//`. ;|              ``---\\` :\r\n//   -(o)- (   \\ .- \\  `._// |    *               `.'       *\r\n//     |   |\\   :   : _ |.-  :              .        .\r\n//     .   :\\: -:  _|\\_||  .-(    _..----..\r\n//         :_:  _\\\\_`.--'  _  \\,-'      __ \\\r\n//         .` \\\\_,)--'/ .'    (      ..'--`'          ,-.\r\n//         |.- `-'.-               ,'                (///)\r\n//         :  ,'     .            ;             *     `-'\r\n//   *     :         :           /\r\n//          \\      ,'         _,'   88888b   888    88b  88 88  d888b  88\r\n//           `._       `-  ,-'      88   88 88 88   888b 88 88 88   `  88\r\n//            : `--..     :        *88888P 88   88  88`8b88 88 88      88\r\n//        .   |           |         88    d8888888b 88 `888 88 88   ,  `\"\t.\r\n//            |           |         88    88     8b 88  `88 88  T888P  88\r\n/////////////////////////////////////////////////////////////////////////\r\n",
  "sourcePath": "C:\\Users\\cody.burns\\Documents\\github\\ETC-public-Works\\contracts\\contracts\\faucet.sol",
  "compiler": {
    "name": "solc",
    "version": "0.4.24+commit.e67f0147.Emscripten.clang"
  },
  "schemaVersion": "2.0.1",
  "updatedAt": "2018-10-31T22:00:19.560Z"
}