{
  "contractName": "Split",
  "abi": [
    {
      "constant": true,
      "inputs": [],
      "name": "percent",
      "outputs": [
        {
          "name": "",
          "type": "uint256"
        }
      ],
      "payable": false,
      "stateMutability": "view",
      "type": "function"
    },
    {
      "constant": true,
      "inputs": [],
      "name": "owner",
      "outputs": [
        {
          "name": "",
          "type": "address"
        }
      ],
      "payable": false,
      "stateMutability": "view",
      "type": "function"
    },
    {
      "constant": true,
      "inputs": [],
      "name": "donate",
      "outputs": [
        {
          "name": "",
          "type": "address"
        }
      ],
      "payable": false,
      "stateMutability": "view",
      "type": "function"
    },
    {
      "inputs": [
        {
          "name": "_owner",
          "type": "address"
        },
        {
          "name": "_donate",
          "type": "address"
        },
        {
          "name": "_percent",
          "type": "uint256"
        }
      ],
      "payable": false,
      "stateMutability": "nonpayable",
      "type": "constructor"
    },
    {
      "payable": true,
      "stateMutability": "payable",
      "type": "fallback"
    }
  ],
  "bytecode": "0x6060604052341561000f57600080fd5b604051606080610389833981016040528080519060200190919080519060200190919080519060200190919050508060018110158015610050575060638111155b151561005b57600080fd5b83600160006101000a81548173ffffffffffffffffffffffffffffffffffffffff021916908373ffffffffffffffffffffffffffffffffffffffff160217905550826000806101000a81548173ffffffffffffffffffffffffffffffffffffffff021916908373ffffffffffffffffffffffffffffffffffffffff1602179055508160028190555050505050610293806100f66000396000f300606060405260043610610057576000357c0100000000000000000000000000000000000000000000000000000000900463ffffffff16806370ba1113146101435780638da5cb5b1461016c578063ed88c68e146101c1575b600080600034111561013f576064600254340281151561007357fe5b0491508134039050600160009054906101000a900473ffffffffffffffffffffffffffffffffffffffff1673ffffffffffffffffffffffffffffffffffffffff166108fc829081150290604051600060405180830381858888f1935050505015156100dd57600080fd5b6000809054906101000a900473ffffffffffffffffffffffffffffffffffffffff1673ffffffffffffffffffffffffffffffffffffffff166108fc839081150290604051600060405180830381858888f19350505050151561013e57600080fd5b5b5050005b341561014e57600080fd5b610156610216565b6040518082815260200191505060405180910390f35b341561017757600080fd5b61017f61021c565b604051808273ffffffffffffffffffffffffffffffffffffffff1673ffffffffffffffffffffffffffffffffffffffff16815260200191505060405180910390f35b34156101cc57600080fd5b6101d4610242565b604051808273ffffffffffffffffffffffffffffffffffffffff1673ffffffffffffffffffffffffffffffffffffffff16815260200191505060405180910390f35b60025481565b600160009054906101000a900473ffffffffffffffffffffffffffffffffffffffff1681565b6000809054906101000a900473ffffffffffffffffffffffffffffffffffffffff16815600a165627a7a72305820cba9502a56e92d837447e27965cb2c55f6f0c4282a0d2e679dad7a1cb9cccc540029",
  "source": "pragma solidity ^0.4.19;\r\n\r\ncontract Split {\r\n    address public donate;\r\n    address public owner;\r\n    uint public percent;\r\n\r\n    modifier validPercent(uint _percent) {\r\n        require(_percent >= 1 && _percent <= 99);\r\n        _;\r\n    }\r\n\r\n    function Split(address _owner, address _donate, uint _percent)\r\n        public\r\n        validPercent(_percent)\r\n    {\r\n      owner = _owner;\r\n      donate = _donate;\r\n      percent = _percent;\r\n    }\r\n\r\n    function() payable public {\r\n        if (msg.value > 0) {\r\n            uint toDonate = msg.value * percent / 100;\r\n            uint toOwner = msg.value - toDonate;\r\n\r\n            owner.transfer(toOwner);\r\n            donate.transfer(toDonate);\r\n        }\r\n    }\r\n}\r\n",
  "sourcePath": "C:\\Users\\cody.burns\\Documents\\github\\ETC-public-Works\\contracts\\contracts\\splitter.sol",
  "compiler": {
    "name": "solc",
    "version": "0.4.19+commit.c4cbbb05.Emscripten.clang"
  },
  "schemaVersion": "2.0.0",
  "updatedAt": "2018-03-12T18:36:17.780Z"
}