{
  "contractName": "Split",
  "abi": [
    {
      "constant": true,
      "inputs": [],
      "name": "percent",
      "outputs": [
        {
          "name": "",
          "type": "uint256"
        }
      ],
      "payable": false,
      "stateMutability": "view",
      "type": "function"
    },
    {
      "constant": true,
      "inputs": [],
      "name": "owner",
      "outputs": [
        {
          "name": "",
          "type": "address"
        }
      ],
      "payable": false,
      "stateMutability": "view",
      "type": "function"
    },
    {
      "constant": true,
      "inputs": [],
      "name": "donate",
      "outputs": [
        {
          "name": "",
          "type": "address"
        }
      ],
      "payable": false,
      "stateMutability": "view",
      "type": "function"
    },
    {
      "inputs": [
        {
          "name": "_owner",
          "type": "address"
        },
        {
          "name": "_donate",
          "type": "address"
        },
        {
          "name": "_percent",
          "type": "uint256"
        }
      ],
      "payable": false,
      "stateMutability": "nonpayable",
      "type": "constructor"
    },
    {
      "payable": true,
      "stateMutability": "payable",
      "type": "fallback"
    }
  ],
  "bytecode": "0x608060405234801561001057600080fd5b506040516060806103a7833981018060405281019080805190602001909291908051906020019092919080519060200190929190505050806001811015801561005a575060638111155b151561006557600080fd5b83600160006101000a81548173ffffffffffffffffffffffffffffffffffffffff021916908373ffffffffffffffffffffffffffffffffffffffff160217905550826000806101000a81548173ffffffffffffffffffffffffffffffffffffffff021916908373ffffffffffffffffffffffffffffffffffffffff16021790555081600281905550505050506102a7806101006000396000f300608060405260043610610057576000357c0100000000000000000000000000000000000000000000000000000000900463ffffffff16806370ba1113146101515780638da5cb5b1461017c578063ed88c68e146101d3575b600080600034111561014d576064600254340281151561007357fe5b0491508134039050600160009054906101000a900473ffffffffffffffffffffffffffffffffffffffff1673ffffffffffffffffffffffffffffffffffffffff166108fc829081150290604051600060405180830381858888f193505050501580156100e3573d6000803e3d6000fd5b506000809054906101000a900473ffffffffffffffffffffffffffffffffffffffff1673ffffffffffffffffffffffffffffffffffffffff166108fc839081150290604051600060405180830381858888f1935050505015801561014b573d6000803e3d6000fd5b505b5050005b34801561015d57600080fd5b5061016661022a565b6040518082815260200191505060405180910390f35b34801561018857600080fd5b50610191610230565b604051808273ffffffffffffffffffffffffffffffffffffffff1673ffffffffffffffffffffffffffffffffffffffff16815260200191505060405180910390f35b3480156101df57600080fd5b506101e8610256565b604051808273ffffffffffffffffffffffffffffffffffffffff1673ffffffffffffffffffffffffffffffffffffffff16815260200191505060405180910390f35b60025481565b600160009054906101000a900473ffffffffffffffffffffffffffffffffffffffff1681565b6000809054906101000a900473ffffffffffffffffffffffffffffffffffffffff16815600a165627a7a72305820735315dd06c989f9ae69906263e8e2cae529a6453a2d2e496cb4ea1fc43c58f20029",
  "source": "pragma solidity ^0.4.19;\r\n\r\ncontract Split {\r\n    address public donate;\r\n    address public owner;\r\n    uint public percent;\r\n\r\n    modifier validPercent(uint _percent) {\r\n        require(_percent >= 1 && _percent <= 99);\r\n        _;\r\n    }\r\n\r\n    function Split(address _owner, address _donate, uint _percent)\r\n        public\r\n        validPercent(_percent)\r\n    {\r\n      owner = _owner;\r\n      donate = _donate;\r\n      percent = _percent;\r\n    }\r\n\r\n    function() payable public {\r\n        if (msg.value > 0) {\r\n            uint toDonate = msg.value * percent / 100;\r\n            uint toOwner = msg.value - toDonate;\r\n\r\n            owner.transfer(toOwner);\r\n            donate.transfer(toDonate);\r\n        }\r\n    }\r\n}\r\n",
  "sourcePath": "C:\\Users\\cody.burns\\Documents\\github\\ETC-public-Works\\contracts\\contracts\\splitter.sol",
  "compiler": {
    "name": "solc",
    "version": "0.4.24+commit.e67f0147.Emscripten.clang"
  },
  "schemaVersion": "2.0.1",
  "updatedAt": "2018-10-31T22:00:19.557Z"
}